:100000000C943B010C946C010C946C010C946C01ED
:100010000C946C010C946C010C946C010C946C01AC
:100020000C946C010C946C010C946C010C946C019C
:100030000C946C010C946C010C946C010C946C018C
:100040000C946C010C946C010C946C010C946C017C
:100050000C946C010C946C010C946C010C948A054A
:100060000C946C010C94FE050C94D4050C946C015A
:100070000C946C010C946C010C946C010C946C014C
:100080000C946C010C946C010C946C010C946C013C
:100090000C946C010C946C010C946C010C946C012C
:1000A0000C946C010C946C010C946C010C946C011C
:1000B0000C946C010C946C010C946C010C946C010C
:1000C0000C946C010C946C010C946C010C946C01FC
:1000D0000C946C010C946C010C946C010C946C01EC
:1000E0000C946C010C94CC010C9496010C94A1011D
:1000F0000C94A7010C94D2020C94AB010C94D10186
:100100000C94C3010C948C010C9434060C941803C9
:100110000C9492010C94CD010C949A010C94BF01A3
:100120000C94C7010C949E010C9482020C94B101B2
:100130000C940E050C94B6030C94B5010C94E002DB
:100140000C9465030C94BE020C94AF020C94B9019C
:100150000C94B70300002100240027002A002D0082
:100160003000330001010000040107010A01000012
:100170002200250028002B002E003100340002014F
:100180000000050108010B010000200023002600EB
:1001900029002C002F00320000010000030106019D
:1001A00009010505050507050808080802020202FD
:1001B0000A0A080804040404010101010101010103
:1001C0000303030303030303040707070C0C0C0CCE
:1001D0000C0C0C0C020202020606060606060606B7
:1001E0000B0B0B0B0B0B0B0B010210202008081044
:1001F0002040102040800201020108040201010297
:10020000040810204080804020100804020180046F
:1002100002018040201008040201080402010102CA
:1002200004081020408001020408102040800000D3
:100230000A0B02090C0D0E08070304010000000060
:1002400000000000000000000000000000000000AE
:10025000000000000000000000001211100000006B
:10026000000000000000000000000000000000008E
:1002700000000000340611241FBECFEFD1E2DEBF24
:10028000CDBF00E00CBF12E0A0E0B2E0EEE9FFE07D
:1002900000E00BBF02C007900D92A634B107D9F75A
:1002A00023E0A6E4B2E001C01D92A430B207E1F75A
:1002B00011E0CBE3D1E000E006C021970109802FD7
:1002C000FE010E94C507CA33D10780E00807A9F7DD
:1002D0000E947E060C94CD070C9400008150823160
:1002E00008F05AC0E82FF0E08827E658FE4F8F4FFD
:1002F0000C94C5079A019E018C0192019601CC01D4
:10030000A101A701AB01B101B501B901BF01C30151
:10031000CC01C701CD01D101809180008F778093FE
:1003200080000895809180008F7DF9CF80918000BA
:10033000877FF5CF84B58F7784BD089584B58F7D91
:10034000FBCF8091B0008F778093B00008958091AB
:10035000B0008F7DF9CF809190008F7780939000CF
:100360000895809190008F7DF9CF80919000877FD4
:10037000F5CF8091A0008F778093A00008958091A1
:10038000A0008F7DF9CF8091A000877FF5CF80916D
:1003900020018F77809320010895809120018F7D27
:1003A000F9CF80912001877FF5CFCF93DF93282F5E
:1003B00030E0F901E25DFD4F8491F901E851FE4F13
:1003C000D491F901EE55FE4FC491CC23A1F08111D7
:1003D0000E946E01EC2FF0E0EE0FFF1FE857FE4F7A
:1003E000A591B491EC91ED2381E090E009F480E0D7
:1003F000DF91CF91089580E090E0FACF1F93CF93E3
:10040000DF93282F30E0F901E25DFD4F8491F9017F
:10041000E851FE4FD491F901EE55FE4FC491CC2323
:10042000A9F0162F81110E946E01EC2FF0E0EE0F63
:10043000FF1FE259FE4FA591B4918FB7F894EC914C
:10044000111108C0D095DE23DC938FBFDF91CF91CF
:100450001F910895DE2BF8CFCF93DF9390E0FC013E
:10046000E851FE4F24918E559E4FFC0184918823C4
:10047000D1F090E0880F991FFC01EC5AFE4FA59136
:10048000B491FC01E259FE4FC591D49161110EC0A7
:100490009FB7F8948C91E22FE0958E238C9328815E
:1004A000E223E8839FBFDF91CF9108958FB7F8943F
:1004B000EC91E22BEC938FBFF6CF3FB7F89480918D
:1004C0004B0290914C02A0914D02B0914E0226B584
:1004D000A89B05C02F3F19F00196A11DB11D3FBF7C
:1004E000BA2FA92F982F8827BC01CD01620F711D4B
:1004F000811D911D42E0660F771F881F991F4A9545
:10050000D1F70895AF92BF92CF92DF92EF92FF9210
:100510000F931F93CF93DF936C017B018B01040F2B
:10052000151FEB015E01AE18BF08C017D10759F0C7
:100530006991D601ED91FC910190F081E02DC60109
:100540001995892B79F7C501DF91CF911F910F91F3
:10055000FF90EF90DF90CF90BF90AF900895FC0197
:10056000538D448D252F30E0842F90E0821B930B18
:10057000541710F0CF96089501970895FC01918DBE
:10058000828D981761F0A28DAE0FBF2FB11D5D96C1
:100590008C91928D9F5F9F73928F90E008958FEF63
:1005A0009FEF0895FC01918D828D981731F0828D17
:1005B000E80FF11D858D90E008958FEF9FEF08956E
:1005C000FC01918D228D892F90E0805C9F4F821BD2
:1005D00091098F73992708958FE492E00E94E002B9
:1005E00021E0892B09F420E0822F0895FC01A48DDD
:1005F000A80FB92FB11DA35ABF4F2C91848D90E045
:1006000001968F739927848FA689B7892C93A08927
:10061000B1898C91837080648C93938D848D9813B1
:1006200006C00288F389E02D80818F7D8083089544
:10063000EF92FF920F931F93CF93DF93EC0181E032
:10064000888F9B8D8C8D98131AC0E889F9898081D9
:1006500085FF15C09FB7F894EE89FF896083E8890C
:10066000F98980818370806480839FBF81E090E0FE
:10067000DF91CF911F910F91FF90EF900895F62E8B
:100680000B8D10E00F5F1F4F0F731127E02E8C8D25
:100690008E110CC00FB607FCFACFE889F98980816A
:1006A00085FFF5CFCE010E94F602F1CFEB8DEC0F66
:1006B000FD2FF11DE35AFF4FF0829FB7F8940B8F87
:1006C000EA89FB8980818062CFCFCF93DF93EC01F1
:1006D000888D8823B9F0AA89BB89E889F9898C912A
:1006E00085FD03C0808186FD0DC00FB607FCF7CFE6
:1006F0008C9185FFF2CF808185FFEDCFCE010E94E6
:10070000F602E9CFDF91CF91089580E090E0892B48
:1007100029F00E94EC0281110E94000080E090E02C
:10072000892B49F080E090E0892B29F00E9400009D
:1007300081110E94000080E090E0892B49F080E068
:1007400090E0892B29F00E94000081110E94000096
:1007500080E090E0892B49F080E090E0892B29F03F
:100760000E94000081110C9400000895089590E00B
:1007700080E00895CF93DF93EC0160E08E810E94CA
:10078000FE0161E08E810E94FE0160E08E810E9488
:10079000FE018BE891E00197F1F7DF91CF91089589
:1007A000CF92DF92EF92FF920F931F93CF93DF933D
:1007B0006C017C0187E0E80EF11CD0E0C0E0062F60
:1007C00010E0B8010C2E02C0759567950A94E2F707
:1007D0006170F70181917F010E94FE012196C43072
:1007E000D10579F7C601DF91CF911F910F91FF904D
:1007F000EF90DF90CF900C94BA03CF92DF92EF92FC
:10080000FF920F931F93CF93DF93EC01F62E642F8B
:100810008C810E94FE018D818F3F19F060E00E9463
:10082000FE010F2D10E08F8584FF25C06E0187E04B
:10083000C80ED11CF12CE12CB8010E2C02C075950C
:1008400067950A94E2F76170F60181916F010E9449
:10085000FE01FFEFEF1AFF0A88E0E816F10461F7E6
:10086000CE01DF91CF911F910F91FF90EF90DF901C
:10087000CF900C94BA03B80184E0759567958A957A
:10088000E1F7CE010E94D0036F2DCE01DF91CF9111
:100890001F910F91FF90EF90DF90CF900C94D003B9
:1008A00040E0682F8CEE92E00C94FD0381E00E9402
:1008B00050048BE39FE10197F1F70895CF93DF9305
:1008C000823029F49091FB0298609093FB02809310
:1008D000FF021092000380E48093010380E1809383
:1008E000020380E58093030361E08091F0020E949F
:1008F0002C028091F1028F3F19F061E00E942C02DE
:1009000061E08091F2020E942C02CCEED2E09E01C6
:100910002C5E32408091FB0284FD0BC084E090E0AD
:1009200021962817390744F461E08E810E942C0239
:10093000EECF88E090E0F4CF8BE39DE00197F1F7F4
:1009400060E08091F0020E94FE0160E08091F2027E
:100950000E94FE018091F1028F3F19F060E00E9439
:10096000FE018091FB0284FD34C063E08CEE92E0D6
:100970000E94D003CBE4D6E4CE010197F1F763E007
:100980008CEE92E00E94D0032197F1F763E08CEEA9
:1009900092E00E94D00383E592E00197F1F762E0D4
:1009A0008CEE92E00E94D0038091FB0280620E9454
:1009B000500484E08093FC028CE00E9450040E946A
:1009C000560482E08093FD0286E0DF91CF910C9483
:1009D000500480620E9450048BE496E40197F1F782
:1009E0008091FB0280620E94500483E592E00197AF
:1009F000F1F78091FB0280620E945004D5CF909164
:100A0000FF02891710F08FEF890FE82FF0E0E45113
:100A1000FD4F84898E5F80680C94500441E00E94F1
:100A2000FD0381E090E00895FB0101900020E9F7CB
:100A30003197AF01461B570BDC01ED91FC91028011
:100A4000F381E02D19948F929F92AF92BF920F93F2
:100A50001F93CF93DF93CDB7DEB7A1970FB6F8946E
:100A6000DEBF0FBECDBF19A2423008F44AE08E01AE
:100A70000F5D1F4F842E912CB12CA12CA501940148
:100A80000E94A307E62FB901CA01EA3004F5E05D30
:100A9000D801EE938D01232B242B252B79F790E0A1
:100AA00080E0109729F0BD018FE492E00E941405C8
:100AB000A1960FB6F894DEBF0FBECDBFDF91CF91E8
:100AC0001F910F91BF90AF909F908F900895E95C18
:100AD000DFCFCF92DF92EF92FF92CF93DF936B0144
:100AE0007C016DE28FE492E00E941803EC0166271E
:100AF0007727CB016C197D098E099F094AE00E9476
:100B000023058C0F9D1FDF91CF91FF90EF90DF9019
:100B1000CF9008951F920F920FB60F9211242F932A
:100B20003F938F939F93AF93BF9380914702909190
:100B30004802A0914902B0914A023091460223E056
:100B4000230F2D3758F50196A11DB11D20934602A4
:100B50008093470290934802A0934902B0934A02BF
:100B600080914B0290914C02A0914D02B0914E02A7
:100B70000196A11DB11D80934B0290934C02A0934E
:100B80004D02B0934E02BF91AF919F918F913F91D3
:100B90002F910F900FBE0F901F90189526E8230FEE
:100BA0000296A11DB11DD2CF1F920F920FB60F92C8
:100BB00011240BB60F922F933F934F935F936F9334
:100BC0007F938F939F93AF93BF93EF93FF938FE4A4
:100BD00092E00E94F602FF91EF91BF91AF919F9139
:100BE0008F917F916F915F914F913F912F910F90D6
:100BF0000BBE0F900FBE0F901F9018951F920F9273
:100C00000FB60F9211240BB60F922F938F939F93D1
:100C1000EF93FF93E0915F02F09160028081E09199
:100C20006502F091660282FD1DC09081809168028C
:100C30008F5F8F7320916902821741F0E091680203
:100C4000F0E0E15BFD4F958F80936802FF91EF919B
:100C50009F918F912F910F900BBE0F900FBE0F9011
:100C60001F9018958081F2CFEFE4F2E01382128298
:100C700088EE93E0A0E0B0E084839583A683B783F9
:100C800084E092E09183808385EC90E0958784876F
:100C900084EC90E09787868780EC90E0918B808B46
:100CA00081EC90E0938B828B82EC90E0958B848B2F
:100CB00086EC90E0978B868B118E128E138E148E9D
:100CC000ECEEF2E01382128286E192E0918380835F
:100CD0008DE084838FEF85838CE086838BE0878330
:100CE0008AE0808789E0818788E08287138614867E
:100CF00015861686178681E00C945E04789484B578
:100D0000826084BD84B5816084BD85B5826085BD07
:100D100085B5816085BD80916E00816080936E0095
:100D20001092810080918100826080938100809187
:100D30008100816080938100809180008160809338
:100D400080008091B10084608093B1008091B000F8
:100D500081608093B00080919100826080939100C7
:100D600080919100816080939100809190008160DA
:100D7000809390008091A10082608093A100809177
:100D8000A10081608093A1008091A0008160809388
:100D9000A000809121018260809321018091210136
:100DA00081608093210180912001816080932001E6
:100DB00080917A00846080937A0080917A008260CA
:100DC00080937A0080917A00816080937A0080918C
:100DD0007A00806880937A001092C100E0915F02EF
:100DE000F091600282E08083E0915B02F0915C020E
:100DF0001082E0915D02F0915E028FEC8083109290
:100E00006702E0916302F091640286E08083E091E2
:100E10006102F0916202808180618083E0916102D1
:100E2000F0916202808188608083E0916102F0919C
:100E30006202808180688083E0916102F0916202A9
:100E400080818F7D808382E00E945E0460E087E085
:100E50000E942C0261E086E00E942C026EE172E0AA
:100E60008CEE92E00E94140587E00E94D501019764
:100E700009F050C061E086E00E94FE010E94560425
:100E800080E00E94FF046EE172E08CEE92E00E942E
:100E9000140581E00E94FF046BE272E08CEE92E0A8
:100EA0000E94140587E00E94D5014AE067E070E0E7
:100EB00080E090E00E9423056AE372E08FE492E014
:100EC0000E9414050E945D026B017C0188EE882E51
:100ED00083E0982EA12CB12C0E945D026C197D0933
:100EE0008E099F09683E734081059105A8F321E0B2
:100EF000821A9108A108B10888EEC80E83E0D81EB6
:100F0000E11CF11C81149104A104B10429F70E9491
:100F10008503AACF60E086E00E94FE010E9456048D
:100F200080E00E94FF046EE172E08CEE92E00E948D
:100F3000140581E00E94FF046DE372E08CEE92E004
:100F40000E941405B2CFA1E21A2EAA1BBB1BFD0101
:100F50000DC0AA1FBB1FEE1FFF1FA217B307E40798
:100F6000F50720F0A21BB30BE40BF50B661F771FF0
:100F7000881F991F1A9469F76095709580959095D0
:100F80009B01AC01BD01CF010895EE0FFF1F881F2B
:0E0F90008BBF0790F691E02D1994F894FFCFD7
:100F9E000000000018038202AF026503E002BE02E9
:100FAE00D202000000000E058202B703B603466CA3
:100FBE00616D652053656E736F72004669726520B0
:100FCE00646574656374656421000D0A004E6F20BC
:060FDE0066697265000067
:00000001FF
