:020000040000FA
:100000000C9476010C94A7010C94A7010C94A70101
:100010000C94A7010C94A7010C94A7010C94A701C0
:100020000C94A7010C94A7010C94A7010C94A701B0
:100030000C94A7010C94A7010C94A7010C94A701A0
:100040000C94A7010C9492130C94A7010C94A70193
:100050000C94A7010C94A7010C94A7010C945E12B8
:100060000C94A7010C94D2120C94A8120C94A70122
:100070000C94A7010C94A7010C94A7010C94A70160
:100080000C9464130C94A7010C94A7010C94A70181
:100090000C94A7010C94A7010C94A7010C94C01315
:1000A0000C94A7010C94A7010C9436130C94A7018F
:1000B0000C94A7010C94A7010C94A7010C940813AD
:1000C0000C94A7010C94A7010C94A7010C94A70110
:1000D0000C94A7010C94A7010C94A7010C94A70100
:1000E0000C94A7010C9476040C94AA030C94D30AE4
:1000F0000C947B030C9407080C94DF0D0C9477038D
:100100000C948E030C946C040C9452040C94800494
:100110000C945A040C94780D0C94E00D0C94EB089C
:100120000C947F0F0C947E030C94C1040C946F0309
:100130000C94090E0C94C11C0C94AE030C949C03FB
:100140000C943E040C94AD040C94020E0C94EF0D30
:100150000C948F040C9496030C94B7070C94A4038E
:100160000C94E4140C9462040C944C0F0C944D0801
:100170000C94A0030C9488030C9492030C94360BFB
:100180000C9434040C94E4070C9469030C947303EA
:100190000C94B7040C942A040C94760D0C94F30779
:1001A0000C94360E0C949A080C9484030C94A304BB
:1001B0000C9499040C94770D0C942F040C9448041F
:1001C0000C9415080C94A9030000210024002700BA
:1001D0002A002D0030003300010100000401070156
:1001E0000A0100002200250028002B002E0031000B
:1001F000340002010000050108010B01000020008D
:100200002300260029002C002F00320000010000EE
:1002100003010601090100000A0B02090C0D0E087A
:1002200007030401000000000000000000000000BF
:1002300000000000000000000000000000000000BE
:10024000000012111000000000000000000000007B
:10025000000000000000000000000000050505058A
:10026000070508080808020202020A0A080804042E
:10027000040401010101010101010303030303035C
:100280000303040707070C0C0C0C0C0C0C0C0202EB
:10029000020206060606060606060B0B0B0B0B0BE8
:1002A0000B0B010210202008081020401020408075
:1002B000020102010804020101020408102040802A
:1002C00080402010080402018004020180402010B8
:1002D0000804020108040201010204081020408001
:1002E0000102040810204080E414C11C11241FBE28
:1002F000CFEFD1E2DEBFCDBF00E00CBF13E0A0E046
:10030000B2E0E6EBF3E400E00BBF02C007900D9211
:10031000A23BB107D9F726E0A2EBB3E001C01D92E2
:10032000AF38B207E1F711E0C5E7D1E000E006C061
:1003300021970109802FFE010E949A1FC437D1071F
:1003400080E00807A9F70E943D160C94C9210C947F
:1003500000008F929F92AF92BF92FF920F931F93D4
:10036000CF93DF93F09076062FE22F1508F44CC060
:100370002091780608E512E0021B110927FD13956C
:10038000000F111F000F111F20917706C8E8D0E061
:10039000C21BD10927FDD395CC0FDD1FCC0FDD1F6C
:1003A0004E010D2E000CAA08BB089801012E000C6E
:1003B000440B550B281939094A095B09DC010E94D5
:1003C0003D1E24EB30E040E050E00E94131E820E00
:1003D000931EA41EB51E8C169D062CF0E8018016F7
:1003E00091060CF4E4012297CC0FDD1F2FB7F8948F
:1003F0008F2D90E0FC01EE0FFF1FE80FF91FED5D60
:10040000FA4FD283C1832FBFDF91CF911F910F91FC
:10041000FF90BF90AF909F908F9008954F925F9202
:100420006F927F928F929F92AF92BF92CF92DF9204
:10043000EF92FF920F931F934091390650913A0625
:100440004F5F5F4F60E0C12CD12C760188248A94E5
:10045000982CA82CB12C80E090E0DC01262F30E015
:10046000421753078CF1220F331F220F331FF9015C
:10047000E054FA4F438454846584768448145904C4
:100480006A047B0424F483849484A584B684F901EB
:10049000E054FA4F4384548465847684C414D504AC
:1004A000E604F70424F4C384D484E584F684205459
:1004B0003A4FF9010385148525853685800F911FF4
:1004C000A21FB31F6F5FCACF88199909AA09BB0978
:1004D000BC01CD016C197D098E099F092091270669
:1004E00004C095958795779567952A95D2F71F91C2
:1004F0000F91FF90EF90DF90CF90BF90AF909F90C3
:100500008F907F906F905F904F9008958CBD9DBDB0
:100510000895CF92DF92EF92FF92CF93DF93C82F8F
:1005200080914D068C3009F45EC038F48B30F1F0C8
:1005300060E070E080EC9FE74FC085518230C0F7EB
:10054000D09149066D2F70E0762F662766277F775A
:1005500080914A06682B90E080E00E94F41C2DEC0C
:100560003CEC4CEC5DE30E94551D59C0609149067E
:1005700070E090E080E00E94F41C6B017C01D0915F
:100580004A06D7FF0AC0AC019B0160E070E080E83A
:100590009FEB0E94761E6B017C01DF706D2F70E077
:1005A00090E080E00E94F61C2DEC3CEC4CEC5DE30E
:1005B0000E94551DA70196010E94771ECC2361F071
:1005C00026E636E646EE5FE30E94551D20E030E069
:1005D00040E052E40E94771EDF91CF91FF90EF90B0
:1005E000DF90CF900895D09149066D2F70E090E094
:1005F00080E00E94F41C6B017C0160914A066F70E0
:1006000070E090E080E00E94F61C2DEC3CEC4CEC9D
:100610005DE30E94551DA70196010E94771ED7FF3A
:10062000CDCF9058CBCFCF92DF92EF92FF92CF9366
:10063000DF93B0914E06A0E08111AB2F80914F0661
:1006400090E0880F991FAC0144505E4FC090540653
:10065000D0905506E0905606F090570630E020E026
:10066000FA01C591D491E881B90190E080E0EB23D3
:10067000EA130AC02F5F3F4F6C157D058E059F055D
:1006800078F36FEF7FEFCB01DF91CF91FF90EF9089
:10069000DF90CF9008958150823108F05AC0E82F42
:1006A000F0E08827E95AFC4F8F4F0C949A1F77038C
:1006B0007B0369036F037303A9037E038403880329
:1006C0008E03920396039C03A003A903A403AA0329
:1006D000AE03809180008F77809380000895809191
:1006E00080008F7DF9CF80918000877FF5CF84B522
:1006F0008F7784BD089584B58F7DFBCF8091B00046
:100700008F778093B00008958091B0008F7DF9CFEE
:10071000809190008F778093900008958091900051
:100720008F7DF9CF80919000877FF5CF8091A000D9
:100730008F778093A00008958091A0008F7DF9CFDE
:100740008091A000877FF5CF809120018F778093E3
:1007500020010895809120018F7DF9CF80912001A3
:10076000877FF5CFCF93DF93282F30E0F901EA5E42
:10077000FD4F8491F901EE55FD4FD491F901E45AF2
:10078000FD4FC491CC23A1F081110E944B03EC2FAB
:10079000F0E0EE0FFF1FE450FE4FA591B491EC91F5
:1007A000ED2381E090E009F480E0DF91CF9108959E
:1007B00080E090E0FACF1F93CF93DF93282F30E0B3
:1007C000F901EA5EFD4F8491F901EE55FD4FD49198
:1007D000F901E45AFD4FC491CC23A9F0162F8111E1
:1007E0000E944B03EC2FF0E0EE0FFF1FEE51FE4F87
:1007F000A591B4918FB7F894EC91111108C0D095E0
:10080000DE23DC938FBFDF91CF911F910895DE2B04
:10081000F8CF9C01EDE1F2E0E491E150E23108F023
:10082000B0C0F0E08827E85EFB4F8F4F0C949A1F12
:100830002A042F0434043E044804C10452045A0418
:1008400062046C04760480048F049904C104A30438
:10085000AD04B70484B5806884BD27BD089584B510
:10086000806284BD28BD0895809180008068809357
:100870008000309389002093880008958091800043
:1008800080628093800030938B0020938A000895CB
:100890008091800088608093800030938D00209349
:1008A0008C0008958091B00080688093B000209300
:1008B000B30008958091B00080628093B0002093CF
:1008C000B4000895809190008068809390003093E8
:1008D0009900209398000895809190008062809301
:1008E000900030939B0020939A000895809190008F
:1008F00088608093900030939D0020939C00089521
:100900008091A00080688093A0008091A0008F7BE0
:100910008093A0003093A9002093A80008958091AF
:10092000A00080628093A0003093AB002093AA00C7
:1009300008958091A00088608093A0003093AD005E
:100940002093AC000895809120018068809320015D
:10095000309329012093280108958091200180621D
:100960008093200130932B0120932A0108958091D8
:10097000200188608093200130932D0120932C0169
:10098000089560E0203831050CF061E087E00C94B8
:10099000DB03CF93DF9390E0FC01EE55FD4F2491F4
:1009A000845A9D4FFC0184918823C9F090E0880F00
:1009B000991FFC01E853FE4FA591B491FC01EE5143
:1009C000FE4FC591D49161110DC09FB7F8948C91E1
:1009D000209582238C938881282328839FBFDF91D1
:1009E000CF910895623051F49FB7F8943C91822FD3
:1009F000809583238C93E8812E2BEFCF8FB7F894CB
:100A0000EC912E2B2C938FBFEACF90917B00977F98
:100A100090937B008653806480937C0080917A0061
:100A2000806480937A0080917A0086FDFCCF80916B
:100A300078009091790008953FB7F89480917604FA
:100A400090917704A0917804B091790426B5A89B81
:100A500005C02F3F19F00196A11DB11D3FBFBA2F50
:100A6000A92F982F8827BC01CD01620F711D811D10
:100A7000911D42E0660F771F881F991F4A95D1F795
:100A800008958F929F92AF92BF92CF92DF92EF9292
:100A9000FF924B015C010E941C056B017C010E94CE
:100AA0001C056C197D098E099F09683E73408105FC
:100AB0009105A8F321E0821A9108A108B10888EEF7
:100AC000C80E83E0D81EE11CF11C81149104A1041E
:100AD000B10429F7FF90EF90DF90CF90BF90AF90D7
:100AE0009F908F9008952FB7F89460917204709141
:100AF000730480917404909175042FBF0895CF9270
:100B0000DF92EF92FF92CF938091C1050E94B203D2
:100B10008111C6C00E941C05C0901D06D0901E0603
:100B2000E0901F06F09020066C197D098E099F0940
:100B300060932106709322068093230690932406E7
:100B40000E941C0560931D0670931E0680931F066D
:100B50009093200610923306C0E0C12CD12C760170
:100B60008091C20590E04796C817190609F0BCF4B9
:100B700061E08091C0050E94DB0360E08091C005C8
:100B80000E94DB03C83148F48091C1050E94B20382
:100B9000CC0CDD1CEE1CFF1CC82ACF5FE1CF80E827
:100BA000E826C114D104E10491E0F90618F021E02F
:100BB00020933F0620914506222361F04FEF5FEF1F
:100BC0006FEF70E0DB01CA018C199D09AE09BF0906
:100BD0006C017D0120911B0630911C064091390665
:100BE00050913A064F5F5F4F24173507D9F51092A1
:100BF0001C0610921B06C114D104E104F104F1F0AB
:100C0000209133062F5F20933306E0911B06F0916D
:100C10001C06EE0FFF1FEE0FFF1FE054FA4FC386B6
:100C2000D486E586F68680912906882339F080915E
:100C300026068231F0F48F5F809326060E947305AA
:100C4000609340067093410680934206909343065A
:100C50001092440680913306CF91FF90EF90DF9081
:100C6000CF9008952F5F3F4F30931C0620931B06B3
:100C7000C2CF0E940E0260931706709318068093ED
:100C8000190690931A06109226061092290681E002
:100C900080933406809133068F5F80933306CECFE6
:100CA0000E947305C0904006D0904106E090420635
:100CB000F09043066C197D098E099F096536710510
:100CC0008105910518F081E0809344061092330667
:100CD000C1CFCF92DF92EF92FF92CF930E94730524
:100CE00060934006709341068093420690934306BA
:100CF0000E947305683775408105910518F40E94BC
:100D00007F05F6CF81E08093290610922606109287
:100D100037060E94730520913506309136066B0127
:100D20007C01C20ED31EE11CF11C0E947F05C82F5E
:100D30008091380681110BC00E947305C616D70634
:100D4000E806F90620F481E08093370602C0C2303D
:100D500061F710923406CF91FF90EF90DF90CF9023
:100D60000895CF92DF92EF92FF920F931F93CF934C
:100D7000DF93CDB7DEB7C054D1400FB6F894DEBFD5
:100D80000FBECDBF0E947305009150061091510611
:100D900020915206309153066B017C01C01AD10A92
:100DA000E20AF30A97018601003D1740210531054B
:100DB00090F480915806C05CDE4F0FB6F894DEBF09
:100DC0000FBECDBFDF91CF911F910F91FF90EF909C
:100DD000DF90CF90089560935006709351068093F2
:100DE00052069093530610924B0610924A061092A8
:100DF0004906109248061092470662E080914C0620
:100E00000E94C90461E070E080E090E00E9441052A
:100E100061E080914C060E94C90460E080914C061C
:100E20000E94DB0380914D068551823020F58BE2D4
:100E300091E10197F1F762E080914C060E94C904AC
:100E40008091590690E08230910538F0880F991F03
:100E5000880F991F05970197F1F7F89480E00E9499
:100E600013036F3F7F4F8F4F9F4F61F410925806CF
:100E7000789480E0A0CF64E170E080E090E00E9490
:100E80004105D9CF81E00E9413036F3F7F4F8F4F01
:100E90009F4F61F38E010F5F1F4F6E012FEBC21A40
:100EA0002EEFD20A780180E00E941303F7016083DD
:100EB00071838283938381E00E941303F70164832B
:100EC000758386839783F8E0EF0EF11CEC14FD0424
:100ED00051F7789430E020E0F801C080D180E280C2
:100EE000F3804481558166817781FFEFCF16DF065D
:100EF000EF06FF0631F04F3F8FEF5807680778077E
:100F000019F410925806B5CFF90183E0F595E795ED
:100F10008A95E1F7E95BF94F8081880FC416D50601
:100F2000E606F70610F180832F5F3F4F085F1F4FE3
:100F30002832310589F640914B0620914706809171
:100F40004806280F3327331F80914906280F311D8B
:100F500080914A06820F932F911D992748171906F1
:100F600081F681E08093580626CF8160DCCFAF9276
:100F7000BF92CF92DF92EF92FF920F931F93CF9386
:100F8000DF936C017B018B01040F151FEB015E01E8
:100F9000AE18BF08C017D10759F06991D601ED917D
:100FA000FC910190F081E02DC6011995892B79F70C
:100FB000C501DF91CF911F910F91FF90EF90DF90CE
:100FC000CF90BF90AF900895FC01538D448D252F95
:100FD00030E0842F90E0821B930B541710F0CF96D3
:100FE000089501970895FC01918D828D981761F005
:100FF000A28DAE0FBF2FB11D5D968C91928D9F5F1C
:101000009F73928F90E008958FEF9FEF0895FC01FA
:10101000918D828D981731F0828DE80FF11D858DAD
:1010200090E008958FEF9FEF0895FC01918D228D40
:10103000892F90E0805C9F4F821B91098F739927C5
:1010400008958AE794E00E94150821E0892B09F4AD
:1010500020E0822F0895FC01A48DA80FB92FB11DA7
:10106000A35ABF4F2C91848D90E001968F739927DE
:10107000848FA689B7892C93A089B1898C918370BC
:1010800080648C93938D848D981306C00288F389B5
:10109000E02D80818F7D80830895EF92FF920F93E2
:1010A0001F93CF93DF93EC0181E0888F9B8D8C8D14
:1010B00098131AC0E889F989808185FF15C09FB708
:1010C000F894EE89FF896083E889F98980818370CB
:1010D000806480839FBF81E090E0DF91CF911F917A
:1010E0000F91FF90EF900895F62E0B8D10E00F5F9B
:1010F0001F4F0F731127E02E8C8D8E110CC00FB671
:1011000007FCFACFE889F989808185FFF5CFCE0108
:101110000E942B08F1CFEB8DEC0FFD2FF11DE35A50
:10112000FF4FF0829FB7F8940B8FEA89FB8980818B
:101130008062CFCFCF93DF93EC01888D8823B9F005
:10114000AA89BB89E889F9898C9185FD03C08081D2
:1011500086FD0DC00FB607FCF7CF8C9185FFF2CF4F
:10116000808185FFEDCFCE010E942B08E9CFDF9172
:10117000CF91089580E090E0892B29F00E9421080A
:1011800081110E94000080E090E0892B49F080E00E
:1011900090E0892B29F00E94000081110E9400003C
:1011A00080E090E0892B49F080E090E0892B29F0E5
:1011B0000E94000081110E94000080E090E0892BD5
:1011C00049F080E090E0892B29F00E940000811115
:1011D0000C9400000895BC016E5F7F4FDC01ED911F
:1011E000FC910190F081E02D40E0199591E0811192
:1011F00090E0892F089508958EBD00000DB407FE7C
:10120000FDCF8EB50895DF92EF92FF920F931F935B
:10121000CF93DF937C01062FD42E152F83E590E02A
:101220000E94860260E0F70186850E94DB0382E16E
:101230000E94FC08CD2DD12F0C0F1D2F111DC017A2
:10124000D10721F089910E94FC08F9CF61E0F701F4
:101250008685DF91CF911F910F91FF90EF90DF90E6
:101260000C94DB031F93CF93DF93EC01162F83E5E0
:1012700090E00E94860260E08E850E94DB03812F51
:1012800080680E94FC0880E00E94FC08182F61E042
:101290008E850E94DB03812FDF91CF911F910895EE
:1012A0000F931F93CF93DF93EC01062F142F83E549
:1012B00090E00E94860260E08E850E94DB03802F12
:1012C0000E94FC08812F0E94FC0861E08E85DF915E
:1012D000CF911F910F910C94DB03CF92DF92EF928D
:1012E000FF920F931F93CF93DF93EC016B01142FA9
:1012F000790140E062E00E94500944E06AE0CE01DA
:101300000E94500940E864E1CE010E945009A60104
:10131000612FCE010E94030943E062E0CE010E94EA
:10132000500908E813E16AE0CE010E94320982FF09
:101330001BC040E062E0CE010E94500964E4CE018F
:101340000E943209F701808362E4CE010E943209D3
:10135000F701818380E0DF91CF911F910F91FF9082
:10136000EF90DF90CF90089501501109E1F683E0EE
:10137000F2CF3F924F925F926F927F928F929F92A5
:10138000AF92BF92CF92DF92EF92FF920F931F9393
:10139000CF93DF931F921F92CDB7DEB74C012B0185
:1013A000D42E390180E0E114F10411F0F7018081BD
:1013B000BC2CB29490EFB922B80E40E062E0C401B8
:1013C0000E9450094FE768E0C4010E94500940E8BC
:1013D00064E1C4010E945009A2016D2DC4010E9464
:1013E00003094B2D6AE1C4010E9450094CE062E000
:1013F000C4010E9450096AE1C4010E943209482FC9
:1014000040686AE1C4010E94500920ED422E27E0A5
:10141000522E68E0C4010E943209982F907309F09F
:10142000B6C080FD04C0F1E04F1A510891F783E087
:1014300094C06114710409F46DC00115110509F41B
:1014400069C064E1C4010E943209B82EF8018081AC
:101450008B1508F496C0B082BB20E1F183E590E0E3
:101460000E94860260E0F40186850E94DB03BA9444
:1014700082E90E94FC08CC20B1F08FEF90E09C0143
:1014800002C0220F331FCA94E2F7690182E90E9469
:10149000FC089C2D9095F301208192238C21982BA0
:1014A0009083CC24C39423014C0C511CCB1440F4E6
:1014B00082E90E94FC08F20181932F01C394F6CFC8
:1014C00080E00E94FC08F201808361E0F4018685DF
:1014D0000E94DB0368E1C4010E9432098770E114B5
:1014E000F10411F0F701808333FC4DC061147104E5
:1014F00009F44BC00115110509F447C0AA2009F4ED
:1015000044C0F8014081413039F4843009F049C0C9
:101510008FEF23C080E0E8CF423008F442C0811151
:1015200040C042509E012F5F3F4FB301C4010E9453
:101530006D09811112C0F8019081690E711CF301CF
:1015400032972081998129132CC0F1E06F1A71081C
:10155000F30120819A81291324C00F900F90DF910D
:10156000CF911F910F91FF90EF90DF90CF90BF90A0
:10157000AF909F908F907F906F905F904F903F9033
:10158000089584E0EACF82E0E8CF80E0E6CF6CE027
:10159000C4010E943209382E837109F44ACF81E0D8
:1015A000DCCF87E0DACF8F929F92AF92CF92EF920B
:1015B000FF920F931F93CF93DF9300D01F921F9240
:1015C000CDB7DEB74C0182E08D8340E064E2C40118
:1015D0000E94500940E066E2C4010E94500946E2C0
:1015E00068E4C4010E94500986E28B838D818230B9
:1015F000D8F16CE1C4010E943209482F4F776CE1A9
:10160000C4010E94500987E08C83A12CC12CCE011B
:1016100004967C018E010B5F1F4F9E012F5F3F4F91
:1016200041E0BE016D5F7F4FC4010E94B909982F50
:10163000811117C08D818230B9F48C81811114C061
:1016400081E00F900F900F900F900F90DF91CF914E
:101650001F910F91FF90EF90CF90AF909F908F9040
:10166000089581E0923069F380E0EBCF2F923F92B2
:101670004F925F926F927F928F929F92AF92BF92A2
:10168000CF92DF92EF92FF920F931F93CF93DF934E
:10169000CDB7DEB72D970FB6F894DEBF0FBECDBF26
:1016A00016E0413508F04AC1342E3B014C016CE193
:1016B0000E943209482F4F776CE1C4010E94500903
:1016C00083E98983332029F081E0F301908195300B
:1016D00008F480E022242394B12C9B2D990F990FBC
:1016E000990FD32CD91AD7FCD12C32E0882319F0CA
:1016F00098E89B8333E021E09D2D977009F420E06A
:101700009D2D959595959595290FC9F094E081119A
:1017100093E0291708F4922FEB2DF0E03196E60DB7
:10172000F71D232F4191A1E0B0E0AC0FBD1FA20F28
:10173000B11D4C932F5F422F431B491798F3882309
:1017400011F0F8E0DF0E8FE18D150CF082C090E70C
:101750009A838B819C8189279D8189279E818927F6
:101760008F839E01285F3F4F47E0BE016F5F7F4F31
:10177000C4010E946D09182F8111E0C01A86E3E0B0
:10178000EB87DC86CE0107962C0199E09D87CA8401
:101790004C2D4295407F4C0D6AE1C4010E945009D6
:1017A000A12CCE010A967C018E01055F1F4F92018C
:1017B0004D85BE016F5F7F4FC4010E94B909182F8C
:1017C000823009F065C06CE1C4010E94320985FDD8
:1017D000B5C08F7109F480E2282F30E04D2DDD0C6B
:1017E000550B421753070CF09DC0D82EE82FE595F6
:1017F000E595E595EF5F982F977081E009F480E01B
:10180000E80F81E090E08C0F9D1F8E0F911DFC0171
:10181000215031092770332781E090E002C0880F02
:10182000991F2A95E2F79C018081822B80838BCFC0
:1018300085E98983332031F081E0F301908198308C
:1018400008F04BCF80E049CF87E9898326E0B22EAC
:10185000F9CF9D2D97709A878D2D859585958595C6
:101860008E5F282F2295207F290F2A8321E0911156
:1018700001C020E0280F2D8744244394512C4C0EA6
:101880005D1E480E511CE9E0E81BEB87DC867FCF2C
:10189000811154C080E2D82E9C8590320CF457CF31
:1018A0008B81883809F040C083E093E0EB2DF0E0B5
:1018B0003196E60DF71D980FA1E0B0E0AC0FBD1F0B
:1018C000A80FB11D2C9121938F5F8913F5CFBB8495
:1018D000E3E0BE124DC08A8581114AC09E012D5F92
:1018E0003F4F41E0B201C4010E946D09182F8111E0
:1018F00025C09B81F201818198133CC09C8182812B
:10190000981338C0808182FF12C02394F2E02F1612
:1019100009F48ECF83E0281609F496CF91E02916BA
:1019200009F4CECE15E00AC082E094E0BFCFF30107
:101930008387822D880F820D8F5F8083812F2D9664
:101940000FB6F894DEBF0FBECDBFDF91CF911F91D0
:101950000F91FF90EF90DF90CF90BF90AF909F904E
:101960008F907F906F905F904F903F902F90089551
:1019700011E0E4CF17E0E2CFAF92BF92CF92DF92B7
:10198000EF92FF920F931F93CF93DF936B017A0136
:10199000EC01C459DB4F28813CE0389F8001399F1E
:1019A000100D1124A090B305B12C27FF1FC0FB011F
:1019B0001182108288818F5F888388819801280F27
:1019C000311D87FD3A95F6012A153B051CF48881E7
:1019D0008C30C4F180819181049680349C4908F454
:1019E00073C0F60180819181049670C0888198014E
:1019F000280F311D87FD3A952A153B05DCF68881B5
:101A0000A801480F511D87FD5A95FA01EE0FFF1FDF
:101A1000E40FF51FED5DFA4F808186FFCBCF888103
:101A2000F801E80FF11D87FDFA95CF01EE0FFF1FBA
:101A3000E80FF91FED5DFA4F808160E08F730E941F
:101A4000DB03B8CF808191812881A801420F511D0D
:101A500027FD5A959A01FA01EE0FFF1FE20FF31FBF
:101A6000ED5DFA4F21813281820F931FF70191833F
:101A7000808388819801280F311D87FD3A95F901EF
:101A8000EE0FFF1FE20FF31FED5DFA4F808186FF1F
:101A900022C08881080F111D87FD1A95F801EE0FED
:101AA000FF1FE00FF11FED5DFA4F808161E08F7342
:101AB000DF91CF911F910F91FF90EF90DF90CF902A
:101AC000BF90AF900C94DB0380E49CE9F701918315
:101AD00080838FEF8883DF91CF911F910F91FF90CB
:101AE000EF90DF90CF90BF90AF9008950895089544
:101AF00008952091F303260F3327331F2132310538
:101B0000ECF420914204FC0190E080E0243069F084
:101B100082E00895A091F3032191AC014D525C4FF6
:101B2000A40FB52FB11D2C930196861798F38091C1
:101B3000F303680F6093F30380E0089581E0089554
:101B40001092420481E08093410410921C0461E0F1
:101B500084E10E94DB0361E085E10E94DB03E9EBA5
:101B6000F0E080818E7F808380818D7F808388E418
:101B70008093B80085E48093BC000895CF93DF93F1
:101B800091E09093D2038823B9F0C091B800D0912E
:101B9000BA008091BC008A7B8093BC0060E084E145
:101BA0000E94DB0360E085E10E94DB030E94A00D40
:101BB000D093BA00C093B800DF91CF9108950895F3
:101BC000E0911B0480911A04E81730F4F0E0EE5421
:101BD000FC4F808190E008958FEF9FEF08959091E2
:101BE0001B0480911A042FEF3FEF981748F4E92F58
:101BF000F0E0EE54FC4F208130E09F5F90931B0497
:101C0000C901089580911A0490911B04891B990BB6
:101C10000895CF92DF92EF92FF920F931F93CF938D
:101C2000DF937C01CB018A0120914804222389F0B3
:101C3000EB016B01C40ED51ECC15DD0569F0699171
:101C4000D701ED91FC910190F081E02DC70119952C
:101C5000F3CF642F0E94790DC801DF91CF911F91BE
:101C60000F91FF90EF90DF90CF900895CF93DF9387
:101C70001F92CDB7DEB76983209148042223F9F083
:101C800020916B04203258F021E030E0FC013383D6
:101C9000228390E080E00F90DF91CF9108958091B2
:101CA0004904E82FF0E0E65BFB4F998190838F5F5A
:101CB0008093490480936B0481E090E0ECCF61E075
:101CC000CE0101960E94790DF7CFCF92DF92EF926D
:101CD000FF920F931F93CF93DF93FC01C48121E008
:101CE00020934804C0936A041092490410926B0434
:101CF0008385682B87E195E00E94360ED0916B04B6
:101D0000D13208F092C00E941C056B017C018091C9
:101D10004204811165C082E08093420481E0809397
:101D200041048FEF8093400410923F04D0933E040F
:101D3000AAE4B4E0EEE1F4E080E0D81385C01092AC
:101D40001D0480911D04CC0FC82BC0931D048091ED
:101D50001C04813009F07CC010921C040E941C05F8
:101D60006B017C0180911D048093BB008091440431
:101D700090914504A0914604B0914704892B8A2B89
:101D80008B2B99F00E941C0500914404109145048E
:101D900020914604309147046C197D098E099F09F2
:101DA0000617170728073907E0F18091BC0083FD6B
:101DB000D9CF85EC8093BC000E941C056B017C018F
:101DC00080914204823009F445C0809140048F3FE5
:101DD00061F180914004803241F18091400425C03E
:101DE0008091440490914504A0914604B091470429
:101DF000892B8A2B8B2B09F48ACF0E941C0500911A
:101E000044041091450420914604309147046C1914
:101E10007D098E099F09061717072807390708F05B
:101E200076CF809143040E94BE0D10924904109217
:101E30006B0410924804DF91CF911F910F91FF9096
:101E4000EF90DF90CF9008959D9191938F5F75CF24
:101E500085EEB0CF8091440490914504A091460452
:101E6000B0914704892B8A2B8B2B09F4A9CF0E94B0
:101E70001C050091440410914504209146043091C2
:101E800047046C197D098E099F0906171707280753
:101E9000390708F095CFC5CF90E080E008950F9303
:101EA0001F93CF938C01C62F0E94650E6C2F646028
:101EB000C8010E94650E6C2F6B7FC8010E94650EE1
:101EC00083EC90E00197F1F7CF911F910F91089566
:101ED0000F931F93CF93DF938C01D62FC42F607F76
:101EE000642B0E944F0F80E1D89FB00111246C2B0E
:101EF000C801DF91CF911F910F910C944F0F41E0DA
:101F00000E94680F81E090E00895CF93DF9300D0A6
:101F100000D01F921F92CDB7DEB728E0E6E0F2E0D6
:101F2000DE01119601900D922A95E1F7FC012085C2
:101F3000241708F44FEF50E0440F551F21E030E024
:101F40002C0F3D1F420F531FFA012081620F606862
:101F500040E028960FB6F894DEBF0FBECDBFDF91EC
:101F6000CF910C94680F40E061E00E94680F8BE312
:101F70009FE10197F1F708950F931F93CF93DF939C
:101F8000EC0110921B0410921A0410924904109252
:101F90006B040E94A00D86E79DE090931904809346
:101FA000180487E79DE090931704809316041D8220
:101FB0008A85823010F098E09D83888762E370E024
:101FC00080E090E00E9441056B85CE010E94650E85
:101FD00068EE73E080E090E00E94410560E3CE018E
:101FE0000E944F0F0BE416E4C8010197F1F760E37C
:101FF000CE010E944F0FC8010197F1F760E3CE01B7
:102000000E944F0F83E592E00197F1F760E2CE0165
:102010000E944F0F6D81606240E0CE010E94680F08
:1020200084E08E8340E06CE0CE010E94680FCE0118
:102030000E94B30F82E08F8340E066E0CE010E94F1
:10204000680F40E062E0CE010E94680F8BE39FE1E1
:102050000197F1F7DF91CF911F910F910895FB0147
:1020600001900020E9F73197AF01461B570BDC01C7
:10207000ED91FC910280F381E02D19948F929F9253
:10208000AF92BF92EF92FF920F931F93CF93DF9384
:10209000CDB7DEB7A1970FB6F894DEBF0FBECDBFA8
:1020A0007C01FA01CB0119A2223008F42AE08E014A
:1020B0000F5D1F4F822E912CB12CA12CBF01A501C9
:1020C00094010E94451EF901CA016A300CF5605D59
:1020D000D8016E938D01232B242B252B79F790E0CB
:1020E00080E0109721F0BD01C7010E942F10A1963A
:1020F0000FB6F894DEBF0FBECDBFDF91CF911F9119
:102100000F91FF90EF90BF90AF909F908F900895A8
:10211000695CDECFCF93DF93BC018AE794E00E9435
:102120002F10EC0168E472E08AE794E00E942F101F
:102130008C0F9D1FDF91CF9108952F923F924F9268
:102140005F926F927F928F929F92AF92BF92CF9247
:10215000DF92EF92FF921F93CF93DF93EC016A011E
:102160007B01722EAB019601CB01B6010E94891F43
:102170006BE472E0811126C046015701E894B7F87C
:102180002FEF3FEF4FE75FE7C501B4010E94891FC2
:1021900081110CC02FEF3FEF4FE75FE7C501B4019E
:1021A0000E94EF1C6FE472E0181664F02FEF3FEF0F
:1021B0004FE75FE4C701B6010E94841F1816B4F40C
:1021C00063E572E0CE01DF91CF911F91FF90EF9018
:1021D000DF90CF90BF90AF909F908F907F906F9047
:1021E0005F904F903F902F900C942F102FEF3FEF68
:1021F0004FE75FECC701B6010E94EF1C87FDE0CFFF
:1022000020E030E0A901C701B6010E94EF1C312C8B
:10221000212C87FF0CC041E06DE2CE010E94680FC7
:10222000F7FAF094F7F8F09422242394312C10E07C
:1022300060E070E080E09FE3711641F020E030E064
:1022400040E251E40E94E31E1F5FF6CFA701960112
:102250000E94771E2B013C010E94551F4B015C011F
:102260002AE0BC01A401CE010E943E107C01E20CD8
:10227000F31C1123D1F1C501B4010E94F41C9B0190
:10228000AC01C301B2010E94761E4B015C0141E02A
:102290006EE2CE010E94680F8FEFE81AF80A115023
:1022A00020F120E030E040E251E4C501B4010E9499
:1022B000551D2B013C010E94551F4B01B12CA12C37
:1022C0002AE0B501A401CE010E943E10E80EF91EDD
:1022D000C501B4010E94F41C9B01AC01C301B20111
:1022E0000E94761E4B015C01DACFC701DF91CF91CE
:1022F0001F91FF90EF90DF90CF90BF90AF909F9095
:102300008F907F906F905F904F903F902F900895A7
:102310000C942F10FC0180819181009711F00C9496
:102320003E2008950F931F93CF93DF93EC01888194
:102330009981009759F02A813B812617370730F0A1
:1023400081E0DF91CF911F910F9108958B016F5F15
:102350007F4F0E94C720009759F0998388831B8381
:102360000A832C813D81232B59F7FC011082E8CF91
:1023700080E0E7CFEF92FF920F931F93CF93DF930D
:102380006115710541F480E0DF91CF911F910F91AC
:10239000FF90EF90089541155105B1F07B01EC01DC
:1023A0000C811D81040F151FB8010E949211882312
:1023B00051F3288139818C819D81B701820F931F50
:1023C0000E94C2211D830C8381E0DECFEF92FF9239
:1023D0000F931F93CF93DF93EC017B018A01BA0126
:1023E0000E94921128813981811114C02115310573
:1023F00019F0C9010E943E20198218821D821C8298
:102400001B821A82CE01DF91CF911F910F91FF9015
:10241000EF9008951D830C83B701C9010E94C2216A
:10242000F1CFFC0111821082138212821582148274
:102430006115710551F0FB0101900020E9F731971A
:10244000AF01461B570B0C94E611089585ED809360
:10245000BC008091440490914504A0914604B09141
:1024600047040796A11DB11D23E0B695A795979542
:1024700087952A95D1F72091BC0024FD03C01092C6
:1024800042040895409144045091450460914604EB
:1024900070914704452B462B472B69F30097A10504
:1024A000B10541F02AE22A95F1F700C00197A10990
:1024B000B109E1CF809143040C94BE0D1F920F929D
:1024C0000FB60F9211242F933F938F939F93AF9347
:1024D000BF938091720490917304A0917404B091A1
:1024E00075043091710423E0230F2D3758F50196C0
:1024F000A11DB11D20937104809372049093730405
:10250000A0937404B093750480917604909177043D
:10251000A0917804B09179040196A11DB11D80931A
:10252000760490937704A0937804B0937904BF91D4
:10253000AF919F918F913F912F910F900FBE0F9070
:102540001F90189526E8230F0296A11DB11DD2CF2A
:102550001F920F920FB60F9211240BB60F922F936A
:102560003F934F935F936F937F938F939F93AF931B
:10257000BF93EF93FF938AE794E00E942B08FF91AB
:10258000EF91BF91AF919F918F917F916F915F91EB
:102590004F913F912F910F900BBE0F900FBE0F9058
:1025A0001F9018951F920F920FB60F9211240BB621
:1025B0000F922F938F939F93EF93FF93E0918A0451
:1025C000F0918B048081E0919004F091910482FD60
:1025D0001DC09081809193048F5F8F73209194042C
:1025E000821741F0E0919304F0E0E658FB4F958F9D
:1025F00080939304FF91EF919F918F912F910F9072
:102600000BBE0F900FBE0F901F9018958081F2CFD8
:102610001F920F920FB60F9211240BB60F922F93A9
:102620003F934F935F936F937F938F939F93AF935A
:10263000BF93EF93FF9348E251E064E271E090E0D2
:1026400080E00E94BC0CFF91EF91BF91AF919F91F0
:102650008F917F916F915F914F913F912F910F904B
:102660000BBE0F900FBE0F901F9018951F920F92E8
:102670000FB60F9211240BB60F922F933F934F93E7
:102680005F936F937F938F939F93AF93BF93EF93DA
:10269000FF9348EA50E064EA70E083E090E00E9433
:1026A000BC0CFF91EF91BF91AF919F918F917F9162
:1026B0006F915F914F913F912F910F900BBE0F90B3
:1026C0000FBE0F901F9018951F920F920FB60F928A
:1026D00011240BB60F922F933F934F935F936F93F9
:1026E0007F938F939F93AF93BF93EF93FF9348E9AB
:1026F00050E064E970E082E090E00E94BC0CFF9141
:10270000EF91BF91AF919F918F917F916F915F9169
:102710004F913F912F910F900BBE0F900FBE0F90D6
:102720001F9018951F920F920FB60F9211240BB69F
:102730000F922F933F934F935F936F937F938F935A
:102740009F93AF93BF93EF93FF9348E850E064E803
:1027500070E081E090E00E94BC0CFF91EF91BF918E
:10276000AF919F918F917F916F915F914F913F9129
:102770002F910F900BBE0F900FBE0F901F901895CA
:102780001F920F920FB60F9211240BB60F922F9338
:102790003F934F935F936F937F938F939F93AF93E9
:1027A000BF93EF93FF938091B900887F803609F43F
:1027B0004DC008F040C0883209F4A9C028F5803126
:1027C00009F49DC0C8F4882309F4FBC0883009F4DB
:1027D00096C0FF91EF91BF91AF919F918F917F91A3
:1027E0006F915F914F913F912F910F900BBE0F9082
:1027F0000FBE0F901F901895883109F488C0803261
:1028000041F78093400414C0803409F49DC040F423
:102810008033B9F38833E9F68093400485ECB0C087
:10282000803509F485C0883509F496C0883489F666
:102830000E942612CECF883909F48CC038F588372B
:1028400029F050F4883611F0803719F683E0809330
:1028500042041092150457C0883809F47BC08039AF
:1028600019F0803809F0B5CF80911504803208F056
:1028700071C0E091150481E08E0F80931504809162
:10288000BB00F0E0EB50FC4F80833DC0803B39F053
:10289000E0F4803A09F479C0883A09F09ACF84E0EC
:1028A000809342041092F4031092F303E091180411
:1028B000F091190419958091F30381110FC081E003
:1028C0008093F3031092D30309C0803C09F4A6CF90
:1028D000883C09F4A3CF883B09F07BCFE091F40357
:1028E00081E08E0F8093F403F0E0ED52FC4F808185
:1028F0008093BB009091F4038091F30329C08091F1
:102900001D048093BB0085EC8093BC0062CF909146
:102910003F0480913E04981758F5E0913F0481E010
:102920008E0F80933F04F0E0E25EFB4F8081E9CFA1
:10293000E0913F0481E08E0F80933F048091BB00C3
:10294000F0E0E25EFB4F808390913F0480913E0473
:102950009817C8F285E8D8CFE0913F0481E08E0F48
:1029600080933F048091BB00F0E0E25EFB4F8083E8
:102970008091410481115CCF81E080931C0484EA42
:102980008093BC001092420424CF85EC8093BC005D
:102990001092420480911504803230F4E0911504C5
:1029A000F0E0EB50FC4F10826091150470E0E09174
:1029B0001604F091170485EF93E019951092150411
:1029C00008CF1092400434CF10927D0410927C0402
:1029D00088EE93E0A0E0B0E080937E0490937F04C3
:1029E000A0938004B093810422E132E030937B0411
:1029F00020937A0425EC30E03093870420938604FA
:102A000024EC30E0309389042093880420EC30E0FB
:102A100030938B0420938A0421EC30E030938D04B2
:102A200020938C0422EC30E030938F0420938E04AA
:102A300026EC30E03093910420939004109293049C
:102A400010929404109295041092960410921A0514
:102A50001092190580931B0590931C05A0931D05EA
:102A6000B0931E0584E292E09093180580931705B9
:102A7000109282061092810680E492E09093800684
:102A800080937F0686E28093830680E180938806A8
:102A900082E08093890610928A0667E572E089E7F2
:102AA00096E00E9411128091B305803308F0E1C0D6
:102AB00091E0980F9093B3058093760690E0FC0127
:102AC000EE0FFF1FE80FF91FED5DFA4F88EB9BE05B
:102AD0009283818310926D0610926C0620E432E09E
:102AE00030936B0620936A0687E280936E0690E12E
:102AF0009093730682E0809374061092750646E305
:102B000052E050935B0640935A0645E340936806B3
:102B100045E0409369064EE140934C064BE04093FC
:102B20004D06E0ECF2E0E491E0934E06EAE7F2E0D5
:102B3000E491E0934F0640E85EE360E070E040938C
:102B4000540650935506609356067093570640E01E
:102B500050E060E87FE34093C3055093C405609361
:102B6000C5057093C6054093C7055093C80560938B
:102B7000C9057093CA051092170610921806109294
:102B8000190610921A0610921C0610921B0610923B
:102B90001D0610921E0610921F061092200610921B
:102BA000210610922206109223061092240641E07C
:102BB000409325061092260644E040932706409352
:102BC00028061092290610922A0610922B061092BF
:102BD0002C0610922D0610922E0610922F0610929F
:102BE000300610923106109232061092330610927F
:102BF00034064CE85AE0509336064093350610925E
:102C000037061092380640E150E050933A06409360
:102C1000390610923B0610923C0610923D06109227
:102C20003E0610923F061092400610924106109206
:102C300042061092430610924406109245061092E6
:102C4000460648E04093C10549E04093C005109214
:102C5000B7051092B6053093B5052093B40525E26B
:102C60002093B8059093BD058093BE051092BF05D3
:102C700008958FEF809376062DCFCF93DF93CDB756
:102C8000DEB765970FB6F894DEBF0FBECDBF789460
:102C900084B5826084BD84B5816084BD85B5826061
:102CA00085BD85B5816085BD80916E008160809312
:102CB0006E0010928100809181008260809381007B
:102CC000809181008160809381008091800081608B
:102CD000809380008091B10084608093B1008091E6
:102CE000B00081608093B0008091910082608093F9
:102CF000910080919100816080939100809190007B
:102D00008160809390008091A10082608093A100F7
:102D10008091A10081608093A1008091A0008160DA
:102D20008093A00080912101826080932101809195
:102D30002101816080932101809120018160809335
:102D4000200180917A00846080937A0080917A00DB
:102D5000826080937A0080917A00816080937A000B
:102D600080917A00806880937A001092C100E0918F
:102D70008A04F0918B0482E08083E0918604F091D4
:102D800087041082E0918804F09189048FEC80839D
:102D900010929204E0918E04F0918F0486E080837B
:102DA000E0918C04F0918D04808180618083E091BA
:102DB0008C04F0918D04808188608083E0918C0484
:102DC000F0918D04808180688083E0918C04F09183
:102DD0008D0480818F7D80838AE696E00E94BC0FFF
:102DE00018E01093750660E08AE696E00E94650E92
:102DF0008FE796E00E94BC0F10938A0660E08FE791
:102E000096E00E94650E84EB95E00E94BC0F109343
:102E1000BF0560E084EB95E00E94650E40E061E054
:102E200084EB95E00E94850F66E672E084EB95E006
:102E30000E94881141E060E084EB95E00E94850FDC
:102E400065E772E084EB95E00E9488116CED75E017
:102E500080E090E00E94410584EB95E00E94B30F72
:102E600061E083E00E94C90461E082E00E94C9043D
:102E700061E083E00E94DB0361E082E00E94DB030B
:102E800080917606803308F052C061E084E00E94B1
:102E9000C90480917606282F30E0F901EE0FFF1F5C
:102EA000E20FF31FED5DFA4F9081907C9460908368
:102EB00010927706109278062CE0622F0E948E1FE7
:102EC000829FB001112430E020E0AB01420F531F7C
:102ED000FA01EE0FFF1FE40FF51FED5DFA4F908131
:102EE00096FD17C02F5F3F4F2C30310571F78130B1
:102EF00009F07BC11092800082E0809381001092E3
:102F0000850010928400B19A80916F008260809356
:102F10006F00E09176068E2F90E0FC01EE0FFF1F10
:102F2000E80FF91FED5DFA4F8081806480831FB741
:102F3000F89480917004811127C0E1E9F2E0849156
:102F4000E7EDF2E09491E82FF0E0EE0FFF1FE85379
:102F5000FE4FA591B491EC91E92321F461E085E362
:102F60000E94DB0361E085E30E94C9048CB58061A7
:102F70008CBD8CB580648CBD61E084E30E94C90483
:102F800061E083E30E94C904809170048F5F8093A5
:102F900070041FBF61E0809168060E94C90461E06F
:102FA000809168060E94DB03809169068F3F09F4D7
:102FB00048C160E00E94C904809169060E94B20382
:102FC000892B09F03EC161E0809169060E94C90425
:102FD00060E0809169060E94DB0383E090E0019746
:102FE000F1F761E0809169060E94DB0362E370E023
:102FF00080E090E00E94410540E064E28AE596E0CE
:103000000E94500940E066E28AE596E00E9450097D
:1030100046E268E48AE596E00E94500940E864E5EB
:103020008AE596E00E94500949EA66E58AE596E05D
:103030000E94500943E068E58AE596E00E94500945
:1030400048EE6AE58AE596E00E94500940E46AE2AB
:103050008AE596E00E9450094DE362E28AE596E037
:103060000E94500968E28AE596E00E943209982F92
:103070009370933039F0482F436068E28AE596E018
:103080000E94500986E490E00E94A90162E08091CC
:103090004C060E94C9040E947305605D7740810957
:1030A0009109609350067093510680935206909355
:1030B000530687E38093590662E086E00E94C904C4
:1030C00061E08091C0050E94C90460E08091C10563
:1030D0000E94C90481E08093C20560E08091C00530
:1030E0000E94DB030E94690680E090E0AAEEB2E451
:1030F0008093C3059093C405A093C505B093C605FE
:1031000081EC98E0ACE0BCE38093C7059093C805E0
:10311000A093C905B093CA058E010F5F1F4F87E3C7
:103120000E9405057C0165E872E08AE794E00E9450
:10313000881147010F2C000CAA08BB082AE0B50132
:10314000A401B7FE0DC06DE28AE794E00E944D082D
:1031500044275527BA01481959096A097B092AE009
:103160008AE794E00E943E1083EA92E026ECE216A1
:1031700023E0F2065CF43BE7E31A33E0F30A85E46C
:10318000E816F10408F074C08BEA92E00E948A10FD
:1031900060E083E00E94DB0386E30E940505893539
:1031A00092400CF43DC28CEB92E00E948A1061E0E8
:1031B00082E00E94DB038FE796E00E94B30F0E943B
:1031C000B106882359F080914D068B3038F08D3050
:1031D00008F454C08551823008F44AC1C12CD12C66
:1031E00040ECE42E4FE7F42E67C0823061F4109279
:1031F000900080939100109295001092940088BBEB
:103200008093710086CE833069F41092A00082E032
:103210008093A1001092A5001092A40089BB809316
:10322000720077CE811175CE1092200182E08093DA
:10323000210110922501109224018ABB8093730012
:1032400068CE4FE062E08AE596E00E94500913E004
:1032500062E370E080E090E00E94410562E08AE570
:1032600096E00E94320984FFC7CE115089F7C4CE80
:1032700082EB92E00E948A1061E08BCF6091480659
:1032800070E090E080E00E94F61C2DEC3CEC4CECF1
:103290005DE30E94551D6B017C016091470670E063
:1032A00090E080E00E94F61C9B01AC01C701B601D2
:1032B0000E94771E6B017C010E94B106812C912C2B
:1032C00030ECA32E3FE7B32E882329F080E00E9444
:1032D00089024B015C010E94B106412C512C20EC6B
:1032E000622E2FE7722E882329F081E00E94890246
:1032F0002B013C01A7019601C701B6010E94891F5D
:10330000811111C0A5019401C501B4010E94891F5A
:10331000811109C0A3019201C301B2010E94891F5A
:10332000882309F4B7C060EE72E08AE794E00E9457
:1033300088116CE271E080E090E00E94410540E07D
:1033400064E08AE696E00E94850F64E173E08AE615
:1033500096E00E94881141E061E08AE696E00E94D2
:10336000850F6DE173E08AE696E00E9488118AE598
:1033700096E00E94D30A882309F43AC28AE596E0CF
:103380000E94EB08D82E882309F432C28AE696E020
:103390000E94B30F40E060E08AE696E00E94850F4D
:1033A0006BE273E08AE696E00E94881164E373E0C2
:1033B0008AE794E00E9488116AE472E0CE014096A8
:1033C0000E941112F12C80915C06F81608F049C198
:1033D00061E473E08AE696E00E9488118F2D90E008
:1033E0009C01265A394F5901F901838163E672E045
:1033F000803110F06FEA73E0C8010E9411124D8114
:103400005E8169817A81CE0140960E94BA11C8011D
:103410000E948A11F50183811B861A861D861C86EF
:103420001F861E8640E1B80190E00E94C51CF8018D
:1034300001900020E9F73197AF01401B510BB80113
:10344000CE010A960E94E6114E855F856A857B85CE
:10345000CE0140960E94BA11CE010A960E948A11AE
:103460006CE271E080E090E00E944105F394ABCF04
:10347000609147067091480676276727762790E087
:1034800080E00E94F41C2DEC3CEC4CEC5DE30E94CF
:10349000551D10CF20E030E048EB51E4C501B401E8
:1034A0000E94EF1C87FD0AC020E030E040E752E4B4
:1034B000C701B6010E94EF1C87FF09C061E087E0E9
:1034C0000E94C90460E087E00E94DB0331C020E075
:1034D00030E048EB51E4C501B4010E94841F87FD30
:1034E0000AC020E030E048ED51E4C501B4010E947B
:1034F000EF1C87FD15C020E030E04CE852E4C70126
:10350000B6010E94EF1C18160CF455C020E030E004
:1035100040EA52E4C701B6010E94EF1C87FF4BC08E
:1035200061E087E00E94C90484EB90E00E940904F6
:1035300040E060E08FE796E00E94850F61EF72E067
:103540008FE796E00E94881121E0B701A6018FE77E
:1035500096E00E949D1066EF72E08FE796E00E9471
:10356000881141E060E08FE796E00E94850F68EFE8
:1035700072E08FE796E00E94881121E0B501A40176
:103580008FE796E00E949D1041E06FED8FE796E097
:103590000E94680F6EEF72E08FE796E00E9488113C
:1035A00068EE73E080E090E00E9441058FE796E0CE
:1035B0000E94B30FC4CE20E030E048ED51E4C501D5
:1035C000B4010E94841F87FD0AC020E030E040EF74
:1035D00051E4C501B4010E94EF1C87FD14C020E036
:1035E00030E040EA52E4C701B6010E94EF1C181611
:1035F0008CF020E030E04AEA52E4C701B6010E94B4
:10360000EF1C87FF07C061E087E00E94C9048CEDD2
:1036100090E08CCF61E087E00E94C90461E053CF65
:1036200080E093E00E948A1040E061E08FE796E03E
:103630000E94850F60E073E08FE796E00E9488119A
:1036400041E065E08FE796E00E94850F6EE073E051
:103650008FE796E00E94881160E082E00E94DB0321
:103660006ECEE888F988E114F10471F0F7018191D8
:103670007F01882349F0082E000C990B0E94A82195
:10368000F70131978083F2CFAC88BD88882483947A
:10369000912CA114B10421F04501AA24A394B12CCA
:1036A0001A8219821C821B821E821D8250E040E019
:1036B0006AE472E0C8010E94E611EC88FD88AE144D
:1036C000BF0410F58E149F0408F47401E889F98989
:1036D000EE0DFF1DC0801082688979896A0D7B1DFF
:1036E0006115710561F1FB0101900020E9F7319747
:1036F000AF01461B570BC8010E94E61188899989C2
:10370000E80EF91EF701C0822D813E8180917D0671
:1037100090917E062817390771F589819A81609109
:10372000790670917A060097B9F06115710509F074
:1037300014C1232B09F1FC01808190E018C089811C
:103740009A81009711F00E943E201A8219821E82EF
:103750001D821C821B82D2CF6115710569F0232B5B
:1037600059F0FB01808190E0919581959109DD24CC
:10377000D394892B09F0D12CC8010E948A11DD2035
:1037800009F4EEC081E990E00E94A9018AE696E082
:103790000E94B30F40E060E08AE696E00E94850F49
:1037A00063E473E08AE696E00E94881168E873E1BA
:1037B00080E090E00E9441058AE696E00E94B30F07
:1037C00062E573E08AE696E00E9488118FE290E05D
:1037D0000E94A9016CED75E080E090E00E94410537
:1037E0008AE696E00E94B30FCE0140960E948A11AD
:1037F00040E060E084EB95E00E94850F6CE673E0AA
:1038000084EB95E00E94881140E069E084EB95E04C
:103810000E94850F63E773E084EB95E00E948811B6
:103820000E947F050E940E0260933B0670933C0647
:1038300080933D0690933E06C0901706D0901806E0
:10384000E0901906F0901A066C197D098E099F09FF
:103850000E94F61C2091C7053091C8054091C9050A
:103860005091CA050E94551D6B017C0120E030E09B
:10387000A9010E94EF1C87FF04C0F7FAF094F7F843
:10388000F09441E060E084EB95E00E94850F21E038
:10389000B701A60184EB95E00E949D1067E773E0F5
:1038A00084EB95E00E94881141E068E084EB95E0AC
:1038B0000E94850F20E030E040E05FE3C701B601E1
:1038C0000E94551DAB01BC0122E084EB95E00E94F3
:1038D0009D106AE773E084EB95E00E94881120E078
:1038E00030E44CE955E4C701B6010E94841F87FD0E
:1038F00012C040E060E084EB95E00E94850F6EE727
:1039000073E084EB95E00E94881168EC70E080E041
:1039100090E00E94410586E00E94B203892BD1F419
:1039200041E060E084EB95E00E94850F6FE873E072
:1039300084EB95E00E9488110E94690641E060E0F6
:1039400084EB95E00E94850F60EA73E084EB95E0DC
:103950000E9488110E94BA08E2CB0E94B92107CFC9
:103960008AE696E00E94B30F40E060E08AE696E0C7
:103970000E94850F6EE573E08AE696E00E9488114A
:1039800029CF89E796E00C948A11BB27FB015527C4
:10399000AA27880F991FAA1FA41710F0A41B8395AC
:1039A0005051B9F7A05DAA3308F0A95DA193009723
:1039B00079F7B111B1931192CB010C94DF1CDC01AA
:1039C000FC01672F71917723E1F7329704C07C9156
:1039D0006D9370836291AE17BF07C8F308950E947C
:1039E000311D08F481E00895E89409C097FB3EF486
:1039F00090958095709561957F4F8F4F9F4F99233C
:103A0000A9F0F92F96E9BB279395F69587957795B9
:103A10006795B795F111F8CFFAF4BB0F11F460FF79
:103A20001BC06F5F7F4F8F4F9F4F16C0882311F0D1
:103A300096E911C0772321F09EE8872F762F05C0E5
:103A4000662371F096E8862F70E060E02AF09A9580
:103A5000660F771F881FDAF7880F9695879597F975
:103A60000895990F0008550FAA0BE0E8FEEF16160F
:103A70001706E807F907C0F012161306E407F50762
:103A800098F0621B730B840B950B39F40A2661F0D6
:103A9000232B242B252B21F408950A2609F4A14079
:103AA000A6958FEF811D811D08950E94681D0C94BD
:103AB000D91D0E94CB1D38F00E94D21D20F0952305
:103AC00011F00C94C21D0C94C81D11240C940D1EF1
:103AD0000E94EA1D70F3959FC1F3950F50E0551FAA
:103AE000629FF001729FBB27F00DB11D639FAA2753
:103AF000F00DB11DAA1F649F6627B00DA11D661FA2
:103B0000829F2227B00DA11D621F739FB00DA11DC2
:103B1000621F839FA00D611D221F749F3327A00D7C
:103B2000611D231F849F600D211D822F762F6A2F18
:103B300011249F5750409AF0F1F088234AF0EE0F7D
:103B4000FF1FBB1F661F771F881F91505040A9F7AA
:103B50009E3F510580F00C94C21D0C940D1E5F3FDA
:103B6000E4F3983ED4F3869577956795B795F795E6
:103B7000E7959F5FC1F7FE2B880F911D969587955E
:103B800097F9089597F99F6780E870E060E00895DD
:103B90009FEF80EC089500240A9416161706180665
:103BA0000906089500240A94121613061406050641
:103BB0000895092E0394000C11F4882352F0BB0FD2
:103BC00040F4BF2B11F460FF04C06F5F7F4F8F4F35
:103BD0009F4F089557FD9058440F551F59F05F3F70
:103BE00071F04795880F97FB991F61F09F3F79F01F
:103BF00087950895121613061406551FF2CF4695A1
:103C0000F1DF08C0161617061806991FF1CF869522
:103C10007105610508940895E894BB276627772706
:103C2000CB0197F90895052E97FB1EF400940E948E
:103C30002A1E57FD07D00E94451E07FC03D04EF4F4
:103C40000C942A1E50954095309521953F4F4F4F2B
:103C50005F4F089590958095709561957F4F8F4F38
:103C60009F4F08950E94671EA59F900DB49F900DD1
:103C7000A49F800D911D11240895B7FF0C94321E4E
:103C80000E94321E821B930B0895A1E21A2EAA1BDA
:103C9000BB1BFD010DC0AA1FBB1FEE1FFF1FA217FC
:103CA000B307E407F50720F0A21BB30BE40BF50BF9
:103CB000661F771F881F991F1A9469F76095709582
:103CC000809590959B01AC01BD01CF010895A29F05
:103CD000B001B39FC001A39F700D811D1124911DE0
:103CE000B29F700D811D1124911D08955058BB275E
:103CF000AA270E948E1E0C94D91D0E94CB1D38F05D
:103D00000E94D21D20F039F49F3F19F426F40C9440
:103D1000C81D0EF4E095E7FB0C94C21DE92F0E942C
:103D2000EA1D58F3BA17620773078407950720F056
:103D300079F4A6F50C940C1E0EF4E0950B2EBA2F18
:103D4000A02D0B01B90190010C01CA01A0011124A1
:103D5000FF27591B99F0593F50F4503E68F11A164D
:103D6000F040A22F232F342F4427585FF3CF4695DE
:103D700037952795A795F0405395C9F77EF41F1600
:103D8000BA0B620B730B840BBAF09150A1F0FF0FCA
:103D9000BB1F661F771F881FC2F70EC0BA0F621FB6
:103DA000731F841F48F4879577956795B795F795A6
:103DB0009E3F08F0B0CF9395880F08F09927EE0F3B
:103DC0009795879508950E94F71E0C94D91D0E941F
:103DD000D21D58F00E94CB1D40F029F45F3F29F01E
:103DE0000C94C21D51110C940D1E0C94C81D0E9400
:103DF000EA1D68F39923B1F3552391F3951B550BF5
:103E0000BB27AA2762177307840738F09F5F5F4FAD
:103E1000220F331F441FAA1FA9F335D00E2E3AF0EC
:103E2000E0E832D091505040E695001CCAF72BD004
:103E3000FE2F29D0660F771F881FBB1F2617370755
:103E40004807AB07B0E809F0BB0B802DBF01FF2787
:103E500093585F4F3AF09E3F510578F00C94C21D85
:103E60000C940D1E5F3FE4F3983ED4F3869577954E
:103E70006795B795F7959F5FC9F7880F911D969540
:103E8000879597F90895E1E0660F771F881FBB1F9C
:103E9000621773078407BA0720F0621B730B840B49
:103EA000BA0BEE1F88F7E09508950E94F21D88F086
:103EB0009F5798F0B92F9927B751B0F0E1F0660FEE
:103EC000771F881F991F1AF0BA95C9F714C0B1302F
:103ED00091F00E940C1EB1E008950C940C1E672F07
:103EE000782F8827B85F39F0B93FCCF3869577955E
:103EF0006795B395D9F73EF4909580957095619547
:103F00007F4F8F4F9F4F08950E94311D08F48FEF10
:103F100008950E94311D880B990B0895991B79E033
:103F200004C0991F961708F0961B881F7A95C9F749
:103F300080950895EE0FFF1F881F8BBF0790F691A5
:103F4000E02D19940F931F93CF93DF938230910547
:103F500010F482E090E0E0918D06F0918E0630E062
:103F600020E0B0E0A0E0309799F42115310509F484
:103F70004AC0281B390B24303105D8F58A819B8132
:103F80006115710589F1FB0193838283FE0111C0E4
:103F9000408151810281138148175907E0F0481789
:103FA000590799F4109761F012960C931297139693
:103FB0001C933296CF01DF91CF911F910F910895FD
:103FC00000938D0610938E06F4CF2115310551F024
:103FD0004217530738F0A901DB019A01BD01DF0147
:103FE000F801C1CFEF01F9CF90938E0680938D0633
:103FF000CDCFFE01E20FF31F81939193225031093F
:1040000039832883D7CF20918B0630918C06232BC0
:1040100041F4209102023091030230938C062093E8
:104020008B0620910002309101022115310541F4E7
:104030002DB73EB74091040250910502241B350B69
:10404000E0918B06F0918C06E217F307A0F42E1B8B
:104050003F0B2817390778F0AC014E5F5F4F2417EC
:10406000350748F04E0F5F1F50938C0640938B0628
:10407000819391939FCFF0E0E0E09CCFCF93DF93CB
:104080000097E9F0FC01329713821282A0918D060D
:10409000B0918E06ED0130E020E01097A1F4208170
:1040A0003181820F931F20918B0630918C06281747
:1040B000390709F061C0F0938C06E0938B06DF911D
:1040C000CF910895EA01CE17DF07E8F54A815B81B9
:1040D0009E0141155105B1F7E901FB83EA8349913E
:1040E0005991C40FD51FEC17FD0761F480819181B0
:1040F0000296840F951FE9019983888382819381B9
:104100009B838A83F0E0E0E012968D919C91139757
:104110000097B9F52D913C911197CD010296820F30
:10412000931F20918B0630918C062817390739F69A
:10413000309751F510928E0610928D06B0938C0632
:10414000A0938B06BCCFD383C28340815181840F5F
:10415000951FC817D90761F44E5F5F4F8881998119
:10416000480F591F518340838A819B8193838283A7
:104170002115310509F0B0CFF0938E06E0938D063E
:104180009ECFFD01DC01C0CF13821282D7CF4F92A8
:104190005F926F927F928F929F92AF92BF92CF92D7
:1041A000DF92EF92FF920F931F93CF93DF938C01D7
:1041B000009799F4CB01DF91CF911F910F91FF9060
:1041C000EF90DF90CF90BF90AF909F908F907F90B7
:1041D0006F905F904F900C94A21FFC01E60FF71FA9
:1041E0009C0122503109E217F30708F4AEC0D9014F
:1041F000CD91DC911197C617D70720F1C530D105B5
:1042000078F0CE0104978617970750F0C61BD70B9E
:104210002297C193D1936D937C93CF010E943E204E
:10422000C801DF91CF911F910F91FF90EF90DF9028
:10423000CF90BF90AF909F908F907F906F905F9046
:104240004F9008955B01AC1ABD0A4C018C0E9D1E67
:10425000A0918D06B0918E06512C412CF12CE12CB1
:10426000109731F580918B0690918C0688159905F1
:1042700009F05CC04616570608F058C0809100024D
:1042800090910102009741F48DB79EB740910402CE
:1042900050910502841B950BE817F90708F055C0EB
:1042A000F0938C06E0938B06F90171836083B8CF9D
:1042B0008D919C91119712966C90129713967C9009
:1042C0001397A815B90559F56C0142E0C40ED11C2D
:1042D000CA14DB0420F1AC014A195B09DA01129619
:1042E000159780F06282738251834083D9016D9368
:1042F0007C93E114F10471F0D7011396FC93EE93D3
:1043000012978ECF22968C0F9D1FF9019183808387
:10431000F301EFCFF0938E06E0938D0681CF481620
:10432000590608F42C017D01D3019ACFCB010E94DC
:10433000A21F7C01009749F0AE01B8010E94B02194
:10434000C8010E943E2087016BCF10E000E068CFDB
:104350009111089581568A5108F480528558089524
:10436000FB01DC0102C001900D9241505040D8F792
:104370000895FB01DC018D91019080190110D9F3A2
:10438000990B0895FB01DC0101900D920020E1F7EB
:10439000089511E0C5E7D1E000E006C0802FFE01DE
:1043A0000E949A1F2196011DC637D10780E0080799
:1043B000A9F7F894FFCF00008F06800000004000AE
:1043C00014005400000000004D08B707E4079A08E5
:1043D0001508F307070800000000360E090E4C0F01
:1043E000DF0D020EEF0DE00D00000000360BD30ACA
:1043F000EB08000000007F0FB7074C0F780D0D0A87
:10440000006E616E00696E66006F7666003833205C
:104410004232203535203130002030004469676950
:1044200074616C205363616C6520002032304B470F
:10443000204D4158204C4F414420004C696768741E
:104440002053656E736F7220416E616C6F672072CE
:10445000656164696E673A2000202D204461726BAB
:1044600000202D2044696D00202D2042726967686C
:1044700074004869676820466C616D652053656EFD
:10448000736F722052656164696E67202D206E6FB4
:104490002066697265004448542052656164204674
:1044A00061696C6564210048756D3A0025005465AA
:1044B0006D703A0043004669726520446574656317
:1044C0007465640053544F50210057656C636F6DE1
:1044D00065210050757420796F7572206361726474
:1044E000005363616E6E696E67004E5549442074D7
:1044F00061672069733A002E00416363657373201E
:104500004772616E74656400446F6F7220436C6F14
:10451000736564004163636573732044656E696508
:104520006400576569676874004665650067200028
:104530004C45200020204F766572204C6F616465E9
:104540006420202000202020546172696E672E2E86
:104550002E2020202000202020202020202020206D
:08456000202020202020000093
:020000040003F7
:10E000000D9489F10D94B2F10D94B2F10D94B2F129
:10E010000D94B2F10D94B2F10D94B2F10D94B2F1F0
:10E020000D94B2F10D94B2F10D94B2F10D94B2F1E0
:10E030000D94B2F10D94B2F10D94B2F10D94B2F1D0
:10E040000D94B2F10D94B2F10D94B2F10D94B2F1C0
:10E050000D94B2F10D94B2F10D94B2F10D94B2F1B0
:10E060000D94B2F10D94B2F10D94B2F10D94B2F1A0
:10E070000D94B2F10D94B2F10D94B2F10D94B2F190
:10E080000D94B2F10D94B2F10D94B2F10D94B2F180
:10E090000D94B2F10D94B2F10D94B2F10D94B2F170
:10E0A0000D94B2F10D94B2F10D94B2F10D94B2F160
:10E0B0000D94B2F10D94B2F10D94B2F10D94B2F150
:10E0C0000D94B2F10D94B2F10D94B2F10D94B2F140
:10E0D0000D94B2F10D94B2F10D94B2F10D94B2F130
:10E0E0000D94B2F141546D656761323536300041AF
:10E0F000726475696E6F206578706C6F72657220DE
:10E1000073746B3530305632206279204D4C530099
:10E11000426F6F746C6F616465723E004875683F52
:10E1200000436F6D70696C6564206F6E203D200048
:10E130004350552054797065202020203D20005FF9
:10E140005F4156525F415243485F5F3D2000415658
:10E1500052204C696243205665723D20004743437C
:10E160002056657273696F6E203D20004350552024
:10E1700049442020202020203D20004C6F7720663D
:10E18000757365202020203D20004869676820665F
:10E190007573652020203D200045787420667573D6
:10E1A00065202020203D20004C6F636B2066757336
:10E1B000652020203D20004D617220203720323024
:10E1C000313300312E362E3800342E332E350056A2
:10E1D00023202020414444522020206F7020636F70
:10E1E00064652020202020696E73747275637469E1
:10E1F0006F6E2061646472202020496E74657272B3
:10E20000757074006E6F20766563746F7200726A49
:10E210006D702020006A6D70200057686174207056
:10E220006F72743A00506F7274206E6F7420737541
:10E2300070706F72746564004D7573742062652030
:10E2400061206C6574746572002000577269747483
:10E25000696E672045450052656164696E672045B7
:10E26000450045452065727220636E743D00504F35
:10E27000525400303D5A65726F2061646472003FF1
:10E280003D43505520737461747300403D454550C3
:10E29000524F4D207465737400423D426C696E6B41
:10E2A000204C454400453D44756D70204545505215
:10E2B0004F4D00463D44756D7020464C415348001B
:10E2C000483D48656C70004C3D4C69737420492F83
:10E2D0004F20506F72747300513D51756974005234
:10E2E0003D44756D702052414D00563D73686F7707
:10E2F00020696E7465727275707420566563746FF0
:10E30000727300593D506F727420626C696E6B00BD
:10E310002A0011241FBECFEFD1E2DEBFCDBF01E046
:10E320000CBF12E0A0E0B2E0EEE1FDEF03E00BBFB6
:10E3300002C007900D92A030B107D9F712E0A0E01B
:10E34000B2E001C01D92AE30B107E1F70F9460F367
:10E350000D948DFE01E20EBF0FEF0DBF11241FBE05
:10E360000D9460F30D9400F020E030E040ED57E0B4
:10E3700005C0FA013197F1F72F5F3F4F2817390792
:10E38000C0F308959C01260F311DC901A0E0B0E043
:10E390002F5F3F4FABBFFC018791882361F08093D3
:10E3A000C6008091C00086FFFCCF8091C0008064D1
:10E3B0008093C000EACF08958DE08093C6008091DD
:10E3C000C00086FFFCCF8091C00080648093C000B5
:10E3D0008AE08093C6008091C00086FFFCCF8091C8
:10E3E000C00080648093C00008950F94C2F10F9420
:10E3F000DCF10895FC019081992359F09093C600B7
:10E400008091C00086FFFCCF8091C0008064809323
:10E41000C0003196992379F70895282F982F929567
:10E420009F70892F805D8A3308F0895F8093C600D2
:10E430008091C00086FFFCCF8091C00080648093F3
:10E44000C000822F8F70982F905D9A3308F0995FEB
:10E450009093C6008091C00086FFFCCF8091C000E1
:10E4600080648093C00008959C01FB01853691056E
:10E470001CF46330710594F0C90164E670E00F94F8
:10E480002EFE605D7F4F6093C6008091C00086FFC6
:10E49000FCCF8091C00080648093C0002B30310598
:10E4A00014F43297B4F0C90164E670E00F942EFEC4
:10E4B0006AE070E00F942EFE605D7F4F6093C600AF
:10E4C0008091C00086FFFCCF8091C0008064809363
:10E4D000C000C9016AE070E00F942EFEC0968093E0
:10E4E000C6008091C00086FFFCCF8091C000806490
:10E4F0008093C00008951F93182F8EE692EE60E07F
:10E500000F94C2F11093C6008091C00086FFFCCF2B
:10E510008091C00080648093C0000F94DCF11F9153
:10E5200008952F923F924F925F926F927F928F92B7
:10E530009F92AF92BF92CF92DF92EF92FF920F9392
:10E540001F93DF93CF93CDB7DEB762970FB6F894E2
:10E55000DEBF0FBECDBF382E622ECA01DB015C01CB
:10E560006D01772420E2222E2E010894411C511CBB
:10E570008BC081E0A81680E0B80681E0C80680E084
:10E58000D80628F0C601AA27BB270F940DF2BB2797
:10E59000AD2D9C2D8B2D0F940DF28A2D0F940DF225
:10E5A0002092C6008091C00086FFFCCF8091C00001
:10E5B00080648093C0009DE29093C6008091C0006B
:10E5C00086FFFCCF8091C00080648093C0002092C1
:10E5D000C6008091C00086FFFCCF8091C00080649F
:10E5E0008093C00019828601750188249924A1E0D6
:10E5F0003A1651F03A1620F0B2E03B1661F409C029
:10E600000BBFF701779007C0C7010F9477FE782EF4
:10E6100002C0F7017080872D0F940DF22092C60082
:10E620008091C00086FFFCCF8091C0008064809301
:10E63000C000872D8052F401EF70F0708F3520F408
:10E64000E40DF51D708204C0E40DF51D8EE280839B
:10E650000894E11CF11C011D111D0894811C911CE2
:10E6600090E18916910409F0C2CF80E190E0A0E02A
:10E67000B0E0A80EB91ECA1EDB1E198AC2010F9493
:10E68000FAF10F94DCF16A94662009F072CF629679
:10E690000FB6F894DEBF0FBECDBFCF91DF911F91B3
:10E6A0000F91FF90EF90DF90CF90BF90AF909F9031
:10E6B0008F907F906F905F904F903F902F90089534
:10E6C0002F923F924F925F926F927F928F929F9282
:10E6D000AF92BF92CF92DF92EF92FF920F931F9370
:10E6E000DF93CF93CDB7DEB7CD53D1400FB6F894BB
:10E6F000DEBF0FBECDBF01E20EBF0FEF0DBF94B75F
:10E70000F894A89514BE80916000886180936000A1
:10E7100010926000789493FF05C0E0910002F091A0
:10E7200001021995279A2F9A8091C00082608093E8
:10E73000C00080E18093C40088E18093C1000000A4
:10E74000EE24FF24870144E0A42EB12CCC24DD2448
:10E7500024C0C5010197F1F70894E11CF11C011DCB
:10E76000111D21E2E2162EE4F20620E0020720E06D
:10E77000120718F031E0C32ED12CC801B70127ECE5
:10E780003BE140E050E00F9441FE611571058105C9
:10E79000910519F485B1805885B98091C00087FD35
:10E7A00003C0C114D104A9F2A6014F5F5F4FC25E3E
:10E7B000DE4F59834883CE51D140C25EDE4F8881FF
:10E7C0009981CE51D140019711F00D9410FEC05D9A
:10E7D000DE4F19821882C053D14060E0C15DDE4F28
:10E7E0001882CF52D14088249924C35DDE4F19820C
:10E7F0001882CD52D140C05EDE4F188219821A8233
:10E800001B82C052D140CE5CDE4F188219821A8220
:10E810001B82C253D140EE24FF2487010BBFF701B6
:10E8200007911691C45CDE4F19830883CC53D14005
:10E830000D940BFEC25EDE4F28813981CE51D1404E
:10E840002130310509F52091C600C25EDE4F1982E4
:10E850001882CE51D14022C02F5F3F4F4F4F5F4FA4
:10E86000213082E138078AE7480780E0580780F0C6
:10E87000C45CDE4FE881F981CC53D140EF5FFF4F9C
:10E8800019F0EE27FF27099420E030E040E050E047
:10E890008091C00087FFE0CF2091C600C35DDE4FAE
:10E8A00048815981CD52D1404F5F5F4FC35DDE4FEC
:10E8B00059834883CD52D140213209F063C64A3092
:10E8C000510508F05FC60894811C911C53E0851621
:10E8D000910409F059C600E010E018C081E280936D
:10E8E000C6008091C00086FFFCCF8091C00080648C
:10E8F0008093C0002F5F3F4F2931310579F70F9486
:10E90000DCF10F5F1F4F0530110519F020E030E0FA
:10E91000E5CF10920A0210920B0210920C02109294
:10E920000D02109206021092070210920802109235
:10E930000902109202021092030210920402109235
:10E9400005028FEE90EE60E00F94F5F180E191EE1C
:10E9500060E00F94C2F18091C00087FFFCCF9091DE
:10E96000C600903608F09F759032B8F09093C600BC
:10E970008091C00086FFFCCF8091C00080648093AE
:10E98000C000A0E2A093C6008091C00086FFFCCF2B
:10E990008091C00080648093C000983409F4D7C18E
:10E9A0009934B8F4923409F459C1933458F490333B
:10E9B00019F1903308F4E3C59F33A1F1903409F0C5
:10E9C000DEC5BDC0953409F470C1963409F0D7C5D1
:10E9D00098C1923509F42BC2933538F49C3409F46C
:10E9E000F5C1913509F0CBC518C2963509F445C279
:10E9F000993509F0C4C567C483E792EE62E00F94CD
:10EA0000F5F110920602109207021092080210927D
:10EA1000090210920A0210920B0210920C0210923C
:10EA20000D0213C18FE792EE62E00F94F5F18FEEC5
:10EA300090EE60E00F94F5F181E291EE60E00F94CA
:10EA4000C2F187EB91EE60E00F94F5F180E391EE77
:10EA500060E00F94C2F184EE90EE60E00F94F5F167
:10EA60008FE391EE60E00F94C2F186E090E061E008
:10EA700070E00F9434F20F94DCF18DE591EE60E0DC
:10EA80000F94C2F189EC91EE60E00F94F5F18EE401
:10EA900091EE60E00F94C2F183EC91EE60E00F9490
:10EAA000F5F18CE691EE60E00F94C2F18EE10F94E7
:10EAB0000DF288E90F940DF281E00F940DF20F949E
:10EAC000DCF18BE791EE60E00F94C2F119E0E0E039
:10EAD000F0E010935700E4918E2F0F940DF20F94F5
:10EAE000DCF18AE891EE60E00F94C2F1E3E0F0E03F
:10EAF00010935700E4918E2F0F940DF20F94DCF1D8
:10EB000089E991EE60E00F94C2F1E2E0F0E0109349
:10EB10005700E4918E2F0F940DF20F94DCF188EAE8
:10EB200091EE60E00F94C2F1E1E0F0E01093570045
:10EB30001491812F0F940DF20F94DCF107CF8BE825
:10EB400092EE62E00F94F5F18BE492EE60E00F94A8
:10EB5000F5F10F94DCF100E010E019C0C8016F2D51
:10EB60000F947FFEFF2031F489E492EE60E00F9471
:10EB7000C2F10BC0F092C6008091C00086FFFCCFAE
:10EB80008091C00080648093C0000F5F1F4FC80158
:10EB900081519F41A0E0B0E0ABBFFC01F790BAE229
:10EBA000FB1621F0E2E000301E07C1F60F94DCF105
:10EBB0000F94DCF187E592EE60E00F94F5F10F948D
:10EBC000DCF1CC24DD2400E010E01EC0C8010F946D
:10EBD00077FEF82E882331F489E492EE60E00F94FA
:10EBE000C2F10BC08093C6008091C00086FFFCCFAD
:10EBF0008091C00080648093C000FE1419F00894D6
:10EC0000C11CD11C0F5F1F4FC80181519F41A0E063
:10EC1000B0E0ABBFFC01E790FAE2EF1621F022E092
:10EC20000030120799F60F94DCF10F94DCF182E6C4
:10EC300092EE60E00F94C2F1C60161E070E00F94C3
:10EC400034F20F94DCF10F94DCF110920202109276
:10EC50000302109204021092050278CE89E992EE26
:10EC600062E00F94F5F1279A2F9A16C02F9880E052
:10EC700090E0E0EDF7E03197F1F7019684369105E9
:10EC8000C1F72F9A80E090E0E0EDF7E03197F1F7DF
:10EC9000019684369105C1F78091C00087FFE6CFC9
:10ECA0008091C00087FFFCCF64C485EA92EE62E0E9
:10ECB0000F94F5F140910202509103026091040219
:10ECC0007091050281E020E10F9491F2809102029F
:10ECD00090910302A0910402B091050280509F4FD1
:10ECE000AF4FBF4F8093020290930302A0930402A0
:10ECF000B093050280509041A040B04008F426CE69
:10ED0000A4CF83EB92EE62E00F94F5F140910602FE
:10ED100050910702609108027091090280E020E1A1
:10ED20000F9491F28091060290910702A09108023F
:10ED3000B091090280509F4FAF4FBF4F80930602A2
:10ED400090930702A0930802B0930902FFCD80ECD4
:10ED500092EE62E00F94F5F183E792EE60E00F949B
:10ED6000F5F18FE792EE60E00F94F5F18BE892EE0B
:10ED700060E00F94F5F189E992EE60E00F94F5F10F
:10ED800085EA92EE60E00F94F5F183EB92EE60E09D
:10ED90000F94F5F180EC92EE60E00F94F5F187ECC2
:10EDA00092EE60E00F94F5F188ED92EE60E00F9442
:10EDB000F5F18FED92EE60E00F94F5F18AEE92EEB0
:10EDC00060E00F94F5F183E093EEBDCD87EC92EE19
:10EDD00062E00F94F5F181E40F947BF282E40F94EA
:10EDE0007BF283E40F947BF284E40F947BF285E45E
:10EDF0000F947BF286E40F947BF287E40F947BF20E
:10EE000088E40F947BF28AE40F947BF28BE40F94F6
:10EE10007BF28CE40F947BF299CD88ED92EE62E068
:10EE20000F94F5F1772473948824992409C48FED05
:10EE300092EE62E00F94F5F140910A0250910B02BC
:10EE400060910C0270910D0282E020E10F9491F22A
:10EE500080910A0290910B02A0910C02B0910D02D8
:10EE600080509F4FAF4FBF4F80930A0290930B0289
:10EE7000A0930C02B0930D0269CD8AEE92EE62E08F
:10EE80000F94F5F184EE90EE60E00F94F5F18FECC5
:10EE900091EE60E00F94F5F1662477244301CC5D98
:10EEA000DE4F19821882C452D140D401C301B695F5
:10EEB000A79597958795CA5DDE4F88839983AA8326
:10EEC000BB83C652D140CC5DDE4FA881B981C4520C
:10EED000D1401196CC5DDE4FB983A883C452D14096
:10EEE000CD0162E070E00F9434F2B0E2B093C6005E
:10EEF0008091C00086FFFCCF8091C0008064809329
:10EF0000C000EDE2E093C6008091C00086FFFCCF18
:10EF10008091C00080648093C000F0E2F093C6004E
:10EF20008091C00086FFFCCF8091C00080648093F8
:10EF3000C000CA5DDE4FE880F9800A811B81C6529D
:10EF4000D140BB27A12F902F8F2D0F940DF2CA5DBA
:10EF5000DE4F8881C652D1400F940DF2B0E2FB2EF5
:10EF6000F092C6008091C00086FFFCCF8091C00067
:10EF700080648093C0000DE30093C6008091C000C0
:10EF800086FFFCCF8091C00080648093C00010E2B7
:10EF90001093C6008091C00086FFFCCF8091C00016
:10EFA00080648093C0008BBEF3012791C65DDE4F65
:10EFB0002883CA52D140A22EBB24CC24DD2408943D
:10EFC000611C711C811C911C8BBEF3018791282E42
:10EFD0003324442455240894611C711C811C911C09
:10EFE0008BBEF3013791C55DDE4F3883CB52D140E4
:10EFF0000894611C711C811C911C8BBEF30147910C
:10F00000C45DDE4F4883CC52D140ADEFEA2EAFEF66
:10F01000FA2EAFEF0A2FAFEF1A2F6E0C7F1C801E57
:10F02000911E142D032DF22CEE24EA0CFB1C0C1D5A
:10F030001D1D0F940DF220E22093C6008091C000A8
:10F0400086FFFCCF8091C00080648093C000C65DC5
:10F05000DE4F8881CA52D1400F940DF230E23093D6
:10F06000C6008091C00086FFFCCF8091C000806404
:10F070008093C000C45DDE4F8881CC52D1400F9494
:10F080000DF240E24093C6008091C00086FFFCCFA5
:10F090008091C00080648093C000C55DDE4F888190
:10F0A000CB52D1400F940DF250E25093C6008091A4
:10F0B000C00086FFFCCF8091C00080648093C000B8
:10F0C0008FEFE8168FEFF80680E0080780E018075A
:10F0D00031F484E092EE60E00F94C2F1DFC0D80119
:10F0E000C7018070907CA070B0708050904CA040A0
:10F0F000B040D1F52FEF3FE340E050E0E222F322B1
:10F1000004231523CA5DDE4FA880B980CA80DB8046
:10F11000C652D140AE0CBF1CC01ED11EAA0CBB1CD7
:10F12000CC1CDD1C8EE092EE60E00F94C2F1BB2798
:10F13000A12F902F8F2D0F940DF28E2D0F940DF285
:10F1400030E23093C6008091C00086FFFCCF8091F2
:10F15000C00080648093C0004EE34093C60080915D
:10F16000C00086FFFCCF87C08EE09EEFA0E0B0E03D
:10F17000E822F9220A231B239CE0E91694E9F90608
:10F1800090E0090790E0190709F088C0C45DDE4FE0
:10F19000A881CC52D140EA2EFF2400E010E0102FCD
:10F1A0000F2DFE2CEE24C55DDE4FB881CB52D14031
:10F1B000EB0EF11C011D111DD601C501817090706F
:10F1C000A070B070DC0199278827E80EF91E0A1F8D
:10F1D0001B1F20EF30E040E050E0A222B322C42207
:10F1E000D52241E1AA0CBB1CCC1CDD1C4A95D1F7F1
:10F1F000EA0CFB1C0C1D1D1D81E090E0A0E0B0E0BE
:10F20000282239224A225B2235E1220C331C441C7D
:10F21000551C3A95D1F7E20CF31C041D151D57013E
:10F220006801AA0CBB1CCC1CDD1C85E192EE60E0E1
:10F230000F94C2F1C801AA27BB270F940DF2BB2778
:10F24000A12F902F8F2D0F940DF28E2D0F940DF274
:10F2500090E29093C6008091C00086FFFCCF809121
:10F26000C00080648093C000AEE3A093C60080918C
:10F27000C00086FFFCCF8091C00080648093C000F6
:10F28000C601AA27BB270F940DF2BB27AD2D9C2DDD
:10F290008B2D0F940DF28A2D0F940DF20F94DCF14B
:10F2A000CC5DDE4FE881F981C452D140F99709F471
:10F2B0004DCBF4E0EF2EF12C012D112D6E0C7F1CA7
:10F2C000801E911EF2CD83E093EE62E00F94F5F183
:10F2D0008AE192EE60E00F94C2F18091C00087FF56
:10F2E000FCCF1091C6001F751093C6008091C0001E
:10F2F00086FFFCCF8091C00080648093C0000F9493
:10F30000DCF1812F81548A3108F036C1163409F4BA
:10F3100095C0173490F4133409F44EC0143430F40B
:10F320001134F1F0123409F01DC130C0143409F465
:10F3300059C0153409F016C16BC01A3409F4C4C0A1
:10F340001B3438F4173409F48FC0183409F00AC19B
:10F35000A1C01B3409F4D2C01C3409F003C1E8C0B9
:10F360008FEF81B90DC082B1809582B980E090E0C5
:10F37000E0EDF7E03197F1F70196883C9105C1F790
:10F380008091C00087FFEFCF12B8EFC08FEF84B934
:10F390000DC085B1809585B980E090E0E0EDF7E0A3
:10F3A0003197F1F70196883C9105C1F78091C00033
:10F3B00087FFEFCF15B8D9C08FEF87B90DC088B1DF
:10F3C000809588B980E090E0E0EDF7E03197F1F7C3
:10F3D0000196883C9105C1F78091C00087FFEFCF6F
:10F3E00018B8C3C08FEF8AB90DC08BB180958BB9A7
:10F3F00080E090E0E0EDF7E03197F1F70196883C8E
:10F400009105C1F78091C00087FFEFCF1BB8ADC059
:10F410008FEF8DB90DC08EB180958EB980E090E0F0
:10F42000E0EDF7E03197F1F70196883C9105C1F7DF
:10F430008091C00087FFEFCF1EB897C08FEF80BBD1
:10F440000DC081B3809581BB80E090E0E0EDF7E0F6
:10F450003197F1F70196883C9105C1F78091C00082
:10F4600087FFEFCF11BA81C08FEF83BB0DC084B38C
:10F47000809584BB80E090E0E0EDF7E03197F1F714
:10F480000196883C9105C1F78091C00087FFEFCFBE
:10F4900014BA6BC08FEF809301010FC080910201FD
:10F4A00080958093020180E090E0E0EDF7E03197F5
:10F4B000F1F70196883C9105C1F78091C00087FF64
:10F4C000EDCF1092020151C08FEF809304010FC065
:10F4D0008091050180958093050180E090E0E0ED4A
:10F4E000F7E03197F1F70196883C9105C1F78091DB
:10F4F000C00087FFEDCF1092050137C08FEF8093DA
:10F5000007010FC08091080180958093080180E079
:10F5100090E0E0EDF7E03197F1F70196883C910536
:10F52000C1F78091C00087FFEDCF109208011DC088
:10F530008FEF80930A010FC080910B01809580931B
:10F540000B0180E090E0E0EDF7E03197F1F70196F4
:10F55000883C9105C1F78091C00087FFEDCF1092E4
:10F560000B0103C085E292EEEEC98091C00087FFD7
